:020000040800F2
:100000001809002001010008090100080B0100087F
:100010000D0100080F010008110100080000000098
:1000200000000000000000000000000013010008B4
:100030001501000800000000170100081901000860
:100040001B0100081B0100081B0100081B01000820
:100050001B0100081B0100081B0100081B01000810
:100060001B0100081B0100081B0100081B01000800
:100070001B0100081B0100081B0100081B010008F0
:100080001B0100081B0100081B0100081B010008E0
:100090001B0100081B0100081B0100081B010008D0
:1000A0001B0100081B0100081B0100081B010008C0
:1000B0001B0100081B010008B51300081B01000804
:1000C0001B0100081B0100081B0100081B010008A0
:1000D0001B0100084303000839120008E714000858
:1000E0001B0100081B0100081B010008DFF80CD0F1
:1000F00003F06CFB004800472501000818090020A8
:100100000648804706480047FEE7FEE7FEE7FEE7B1
:10011000FEE7FEE7FEE7FEE7FEE7FEE753320008F4
:10012000ED0000084FF4A06001F024FB00F02CF972
:1001300000F0E2F821A003F0F9FB4FF4614001F078
:10014000AAF800F08BF920A003F0F0FB0DE04FF4CB
:10015000C87000F056F921A003F0E8FB4FF4487096
:1001600000F04FF921A003F0E1FB254800F089FEE3
:100170000028ECD123A003F0D9FB254800F04AFE6B
:10018000044614B1204600F0C5FE224800F0F9FBF9
:1001900004464CB91F48827800881D4B1B88C11A41
:1001A0001DA003F0C3FB02E0204600F0B3FE04E014
:1001B0002048006808B100F0B8FEF9E7B3F5CABC02
:1001C000BBAFD6D00D0A0000D3EBD6B8CEC6C4A3C1
:1001D000BFE9CED5CAD60D0A00000000CEB4BCECF3
:1001E000B2E2B5BDC4A3BFE90D0A0000B3A2CAD4F0
:1001F000D6D8D0C2C1ACBDD3C4A3BFE90D0A00009C
:1002000008000020C1ACBDD3B3C9B9A60D0A0000D7
:100210000200002040000020BFE2C8DDC1BF3A2537
:10022000642020202020B6D4B1C8B5C8BCB63A207E
:1002300025640000040121421FB54FF416500090C0
:100240000020ADF80400ADF80600ADF80800ADF8E8
:100250000C000C20ADF80A006946474802F0C9FDC1
:100260000121454802F051FE012240F22551424849
:1002700002F057FE4021404802F02FFF1FBD08B595
:1002800002F0E7FF0121084601F0FEFD01210420F4
:1002900001F0FAFD0121880301F0F6FD18208DF828
:1002A00003004FF40070ADF8000003208DF8020049
:1002B0006946324801F02CFB4FF48060ADF8000035
:1002C00004208DF8030069462C4801F021FB08BD8D
:1002D00008B54FF4C06001F04DFA25208DF80000FC
:1002E00000208DF801008DF8020001208DF8030038
:1002F000684601F044FA08BD10B5FFF7C0FFFFF7EC
:10030000E7FFFFF799FF10BD70B504460D46E1B257
:10031000194802F067FE00BF1748008800F080000F
:100320000028F9D0204670BD00BF1348008800F0B7
:1003300020000028F9D01048001D0088C0F30800F4
:10034000704710B540210C4802F0C7FE40F225511D
:10035000094802F0CBFE70B1012009490870064837
:1003600002F044FE0749087000BF8021024802F0F5
:10037000A7FE0028F9D010BD003801400008014058
:10038000000000200100002010B56FF0040001F013
:1003900040FA2E4800682E49B0FBF1F02D49087054
:1003A0000846007800EB4001C1EBC0104FF6FF712A
:1003B00001EAC0002849088010BD0146254A12788C
:1003C0004A434FF0E0235A6100229A611A461269AB
:1003D00042F001021A6100BF4FF0E022106900F004
:1003E00001021AB100F48032002AF5D04FF0E02269
:1003F000126922F001024FF0E0231A6100229A6193
:1004000070470146144A12884A434FF0E0235A616C
:1004100000229A611A46126942F001021A6100BF75
:100420004FF0E022106900F001021AB100F48032AE
:10043000002AF5D04FF0E022126922F001024FF0BD
:10044000E0231A6100229A61704700002800002012
:1004500000127A00040000200600002008B50121E7
:10046000042001F011FD0220ADF8000028208DF8D5
:10047000030003208DF802006946F74801F048FAAE
:1004800008BD00BFF549098801F040010029F9D0F5
:10049000F249091D0880704710B5EF20FFF7F1FF02
:1004A0000120FFF7EEFF10BD10B5ED490968080EF9
:1004B000FFF7E7FFEA480068C0F30740FFF7E1FFF6
:1004C000E7480088C0F30720FFF7DBFFE44908781E
:1004D000FFF7D7FF10BD10B504462046FFF7D1FF48
:1004E00010BD10B50446C4F30720FFF7CAFFE0B201
:1004F000FFF7C7FF10BD10B504462046FFF7C1FF48
:1005000010BD10B504462012FFF7BBFFE0B2FFF7A5
:10051000B8FF10BD7CB50546EF208DF80000012026
:100520008DF80100CE480068000E8DF80200CC481E
:100530000068000C8DF80300C9480088000A8DF897
:100540000400C74800788DF8050007208DF80600E4
:1005500000208DF80700C349088012E00120FFF752
:1005600050FFC048008800F4004050B10020BD4951
:1005700008806946BC4802F011FF04460CB12046D1
:100580007CBD681E80B2051EE8D100BFF8E770B5DB
:10059000FFF782FFFFF788FF0120FFF79CFF032092
:1005A000FFF79FFF0120FFF7A6FF05263046FFF764
:1005B000A8FF4FF4FA60FFF7ADFF05460DB16C7A66
:1005C00000E0FF24204670BD2DE9F0410546FFF70D
:1005D00063FFFFF769FF0120FFF77DFF0420FFF7AE
:1005E00080FF0220FFF787FF2846FFF74AFFEF1D35
:1005F0003846FFF786FF4FF4FA60FFF78BFF064699
:100600000EB1747A00E0FF242046BDE8F08170B599
:10061000FFF742FFFFF748FF0120FFF75CFF0320D1
:10062000FFF75FFF0320FFF766FF07263046FFF75F
:1006300068FF4FF4FA60FFF76DFF05460DB16C7A65
:1006400000E0FF24204670BD2DE9F04781460D46AD
:1006500016461F46FFF720FFFFF726FF0120FFF792
:100660003AFF0820FFF73DFF0420FFF744FF48460C
:10067000FFF707FF2812FFF704FFE8B2FFF701FFBB
:100680003012FFF7FEFEF0B2FFF7FBFE09F10D009E
:1006900000EB2520E9B2084400EB2620F1B200EB84
:1006A000010A5046FFF72DFF4FF4FA60FFF732FFC3
:1006B000044664B194F80980E07AA17A00EB012045
:1006C0003880607B217B00EB0120788001E04FF0D7
:1006D000FF084046BDE8F08770B5FFF7DDFEFFF785
:1006E000E3FE0120FFF7F7FE0320FFF7FAFE0520E7
:1006F000FFF701FF09263046FFF703FF4FF4FA60CA
:10070000FFF708FF05460DB16C7A00E0FF24204694
:1007100070BD2DE9F04106460C46FFF7BDFEFFF720
:10072000C3FE0120FFF7D7FE0620FFF7DAFE062002
:10073000FFF7E1FE3046FFF7A4FE2012FFF7A1FE0F
:10074000E0B2FFF79EFE06F10D0000EB2420E1B2BF
:1007500000EB01084046FFF7D4FE4FF4FA60FFF7C4
:10076000D9FE07460FB17D7A00E0FF252846BDE897
:10077000F0812DE9F04104460D46FFF78DFEFFF7AD
:1007800093FE0120FFF7A7FE0720FFF7AAFE0C202B
:10079000FFF7B1FE2012FFF774FEE0B2FFF771FE23
:1007A0002812FFF76EFEE8B2FFF76BFE142000EB95
:1007B0002420E1B2084400EB2520E9B200EB010857
:1007C0004046FFF79EFE4FF4FA60FFF7A3FE074690
:1007D0000FB17E7A00E0FF263046BDE8F08170B5AB
:1007E000FFF75AFEFFF760FE0120FFF774FE0320BB
:1007F000FFF777FE0D20FFF77EFE11263046FFF74C
:1008000080FE4FF4FA60FFF785FE05460DB16C7A65
:1008100000E0FF24204670BD0146212977D2DFE8A1
:1008200001F01113151719535557595B5D5F767613
:100830007676616376767665767667696B6D7076C7
:100840007672740009A064E009A062E00CA060E088
:1008500010A05EE014A05CE00008014000440040ED
:10086000080000200C0000204C0000204F4B00002E
:10087000CAFDBEDDB0FCBDD3CAD5B4EDCEF30000D9
:10088000B4ABB8D0C6F7C9CFC3BBD3D0CAD6D6B8DD
:1008900000000000C2BCC8EBD6B8CEC6CDBCCFF1BC
:1008A000CAA7B0DC00000000D6B8CEC6CDBCCFF1E0
:1008B000CCABB8C9A1A2CCABB5ADB6F8C9FAB2BB46
:1008C000B3C9CCD8D5F70000ADA022E0B4A020E099
:1008D000BAA01EE0C7A01CE0C9A01AE0CCA018E096
:1008E000CFA000BFD7A014E0DAA012E0DDA010E096
:1008F000E5A00EE0E8A00CE0EAA00AE0EDA008E028
:1009000005E0F1A005E0F5A003E0F7A001E0F9A003
:1009100000BF00BF70472DE9F04706460D46FFF7C0
:10092000BBFDFFF7C1FD0120FFF7D5FD0520FFF757
:10093000D8FD0E20FFF7DFFD3046FFF7A2FD284669
:10094000FFF79FFD701900F114084046FFF7D9FD2D
:100950004FF4FA60FFF7DEFD07460FB17C7A00E046
:10096000FF241CB9E8A002F0E1FF07E02046FFF7F2
:1009700053FF81464946E9A002F0D8FF2046BDE872
:10098000F0872DE9F0410546FFF786FDFFF78CFD66
:100990000120FFF7A0FD0320FFF7A3FD0F20FFF7C5
:1009A000AAFD13273846FFF7ACFD4FF47A70FFF726
:1009B000B1FD0446BCB1667AE07BA17B00EB01206F
:1009C0002880607CA870A07C0006E17C00EB0140E0
:1009D000217D00EB0120617D08446860E07D287284
:1009E000607E687200E0FF26A6B92988CDA002F0DB
:1009F0009DFFA978D1A002F099FFD4A0696802F008
:100A000095FF687A4FF4165200FB02F1D2A002F073
:100A10008DFF07E03046FFF7FFFE80464146BFA04E
:100A200002F084FF3046BDE8F0812DE9F041044634
:100A3000FFF732FDFFF738FD0120FFF74CFD0720DF
:100A4000FFF74FFD1520FFF756FD200EFFF719FDAC
:100A5000C4F30740FFF715FDC4F30720FFF711FDAE
:100A6000E0B2FFF70EFD1D2000EB1460C4F3074158
:100A70000844C4F307210844E1B247183846FFF799
:100A800040FDB84804604FF4FA60FFF743FD0646A6
:100A90000EB1757A00E0FF25B24804601DB9B2A01E
:100AA00002F044FF07E02846FFF7B6FE80464146C5
:100AB0009AA002F03BFF2846BDE8F0812DE9F047FF
:100AC00081460E46FFF7E8FCFFF7EEFC0120FFF73A
:100AD00002FD2420FFF705FD1820FFF70CFD484616
:100AE000FFF7CFFC002407E0305DFFF7CAFC305D64
:100AF000384487B2601CC4B2202CF5DB09F13D00FC
:100B0000384487B23846FFF7FCFC4FF4FA60FFF731
:100B100001FD054615B195F8098001E04FF0FF0889
:100B20004046BDE8F0872DE9F04707468846FFF7C5
:100B3000B3FCFFF7B9FC0120FFF7CDFC0420FFF761
:100B4000D0FC1920FFF7D7FC3846FFF79AFC07F1D5
:100B50001E094846FFF7D5FC4FF4FA60FFF7DAFCB0
:100B6000064666B1757A002406E004F10A00305C9E
:100B700008F80400601CC4B2202CF6DBFFE0FDE0A6
:100B8000D6B8CEC6CDBCCFF1CCABCAAAA1A2CCAB55
:100B9000BAFDB6F8C9FAB2BBB3C9CCD8D5F70000D4
:100BA000D6B8CEC6CDBCCFF1CCABC2D2B6F8C9FA5E
:100BB000B2BBB3C9CCD8D5F700000000D6B8CEC6BA
:100BC000CDBCCFF1D5FDB3A3A3ACB5ABCCD8D5F795
:100BD000B5E3CCABC9D9A3A8BBF2C3E6BBFDCCAB94
:100BE000D0A1A3A9B6F8C9FAB2BBB3C9CCD8D5F77E
:100BF00000000000D6B8CEC6B2BBC6A5C5E4000052
:100C0000C3BBCBD1CBF7B5BDD6B8CEC60000000074
:100C1000CCD8D5F7BACFB2A2CAA7B0DC000000008A
:100C2000B7C3CECAD6B8CEC6BFE2CAB1B5D8D6B75A
:100C3000D0F2BAC5B3ACB3F6D6B8CEC6BFE2B7B63B
:100C4000CEA70000C9BEB3FDC4A3B0E5CAA7B0DCFF
:100C500000000000C7E5BFD5D6B8CEC6BFE2CAA720
:100C6000B0DC0000BBBAB3E5C7F8C4DAC3BBD3D06D
:100C7000D3D0D0A7D4ADCABCCDBCB6F8C9FAB2BBEC
:100C8000B3C9CDBCCFF10000B6C1D0B420464C41B1
:100C9000534820B3F6B4ED00CEB4B6A8D2E5B4ED17
:100CA000CEF30000CEDED0A7BCC4B4E6C6F7BAC50A
:100CB00000000000BCC4B4E6C6F7C9E8B6A8C4DAB0
:100CC000C8DDB4EDCEF30000BCC7CAC2B1BED2B31A
:100CD000C2EBD6B8B6A8B4EDCEF30000D6B8CEC6F7
:100CE000BFE2C2FA00000000B5D8D6B7B4EDCEF32B
:100CF00000000000C4A3BFE9B7B5BBD8C8B7C8CFD0
:100D0000C2EBD3D0CEF300000D0AC9E8D6C3B2CEF1
:100D1000CAFDB3C9B9A6A3A1000000000D0A25733E
:100D2000000000000D0AC4A3BFE9D7EEB4F3D6B8A3
:100D3000CEC6C8DDC1BF3D25640000000D0AB6D493
:100D4000B1C8B5C8BCB63D25640000000D0AB5D8D1
:100D5000D6B73D25780000000D0AB2A8CCD8C2CA8B
:100D60003D256400080000200D0AC9E8D6C3B5D8A7
:100D7000D6B7B3C9B9A6A3A100000000FF25284635
:100D8000BDE8F0872DE9F04781460D4616461F461F
:100D9000FFF782FBFFF788FB0120FFF79CFB082091
:100DA000FFF79FFB1B20FFF7A6FB4846FFF769FBF9
:100DB0002812FFF766FBE8B2FFF763FB3012FFF77C
:100DC00060FBF0B2FFF75DFB09F1240000EB25208A
:100DD000E9B2084400EB2620F1B200EB010A5046CC
:100DE000FFF78FFB4FF4FA60FFF794FB044664B102
:100DF00094F80980E07AA17A00EB01203880607BCA
:100E0000217B00EB0120788001E04FF0FF08404695
:100E1000BDE8F0872DE9F0410646FFF73DFBFFF7FF
:100E200043FB0120FFF757FB0320FFF75AFB1D2070
:100E3000FFF761FB21273846FFF763FB4FF4FA60A9
:100E4000FFF768FB044634B1657AE07AA17A00EBDB
:100E50000120308000E0FF253DB9E07AA27A00EB66
:100E6000022125A002F062FD08E02846FFF7D4FC2D
:100E700080464146AFF25C1002F058FD2846BDE8BE
:100E8000F08110B50446FFF707FBFFF70DFB0120CB
:100E9000FFF7F7FA0020FFF7F4FA0020FFF7F1FA66
:100EA000C820FFF7AEFA1948008800F4004008B3E4
:100EB00017480078EF281AD115484078012816D134
:100EC00013488079072812D111488078000610490C
:100ED000C97800EB01400E49097900EB01200C496B
:100EE00049790844206000200849088010BD00208E
:100EF000064908800120F9E70D0AD3D0D0A7D6B85B
:100F0000CEC6B8F6CAFD3D25640000000C000020E6
:100F10004C00002070B504462046FFF77DFC0546D6
:100F2000294677A002F002FD70BD38B5FFF72FFB10
:100F300004460CBB0120FFF747FB0446CCB97548BB
:100F400002886B4600210120FFF71CFF044664B9AC
:100F500071A002F0EBFC00F03FFBBDF8001072A0A6
:100F600002F0E4FC00F0A7FB06E02046FFF7D2FF0A
:100F700002E02046FFF7CEFF38BD2DE9F0410546DF
:100F80004FF000089DE0B8F1050F20D2DFE808F02F
:100F900003203D576E00701CC6B267A002F0C6FC6D
:100FA000FFF7F5FA04467CB90120FFF70DFB044674
:100FB00034B964A002F0BAFC00264FF0010806E044
:100FC0002046FFF7A7FF02E02046FFF7A3FF6DE0F2
:100FD000701CC6B25EA002F0A9FCFFF7D8FA044666
:100FE0007CB90220FFF7F0FA044634B955A002F0AC
:100FF0009DFC00264FF0020806E02046FFF78AFF1E
:1010000002E02046FFF786FF50E056A002F08EFC7B
:10101000FFF7FDFA04462CB956A002F087FC4FF00A
:10102000030807E059A002F081FC2046FFF772FF99
:101030000026B0464FF49660FFF7E3F936E05AA079
:1010400002F074FCFFF748FB04462CB95AA002F0EA
:101050006DFC4FF0040804E04FF000082046FFF755
:1010600059FF4FF49660FFF7CCF91FE057A002F04C
:101070005DFC5AA002F05AFC00BF2F4625480088AC
:10108000B842FADD39460220FFF743FB04463CB97B
:1010900056A002F04BFC5948FFF7BCFEBDE8F081BA
:1010A0004FF000082046FFF735FF00BF00BF4FF4A8
:1010B0007A70FFF7A6F9052E03D151A002F036FC95
:1010C00000E060E700BF00BFE8E770B5054653A049
:1010D00002F02CFC01212846FFF74BFB04461CB90B
:1010E00051A002F023FC02E02046FFF713FF4FF46B
:1010F0009660FFF786F94148FFF78CFE70BD00004F
:101100000D0AB4EDCEF3D0C5CFA2A3BA2573200D3E
:101110000A00000040000020CBA2D6B8CEC6B3C95A
:10112000B9A60D0A0000000049443A256420B4F233
:10113000BFA8B3C9B9A60000C7EBB0B4D6B8CEC635
:101140000D0A0000D6B8CEC6D5FDB3A30D0A000027
:10115000C7EBB0B4D4D9B0B4D2BBB4CED6B8CEC637
:101160000D0A0000B6D4B1C8C1BDB4CED6B8CEC643
:101170000D0A0000B6D4B1C8B3C9B9A62CC1BDB41C
:10118000CED6B8CEC6D2BBD1F90D0A00B6D4B1C8FE
:10119000CAA7B0DCA3ACC7EBD6D8D0C2C2BCC8EBE0
:1011A000D6B8CEC60D0A0000C9FAB3C9D6B8CEC6A5
:1011B000C4A3B0E50D0A0000C9FAB3C9D6B8CEC6BB
:1011C000C4A3B0E5B3C9B9A60D0A0000B4A2B4E641
:1011D000D6B8CEC649440D0A00000000303D3C2080
:1011E0004944203C3D3239390D0A0000C2BCC8EBED
:1011F000D6B8CEC6B3C9B9A60D0A000002000020B9
:10120000B3ACB9FD35B4CEC3BBD3D0B0B4CAD6D617
:10121000B8D4F2CDCBB3F60D0A000000C9BEB3FDC1
:10122000D6B8CEC60D0A0000C9BEB3FDD6B8CEC62C
:10123000B3C9B9A60D0A000010B540F225515648B1
:1012400001F054FFF8B1544801F0D0FEC4B2534845
:10125000008800F40040B0B950480088B0F5C87F5D
:1012600012DA00214E4801F037FD4C48008818B9C9
:1012700001214B4801F09CFA48490888411C474A23
:10128000118048490C5405E04448008840F400406F
:101290004249088010BD10B586B0044601210420E3
:1012A00000F0F2FD0121480400F0FBFD3A4801F096
:1012B0005DFD0420ADF8100003208DF81200182009
:1012C0008DF8130004A9384800F022FB0820ADF87F
:1012D000100004208DF8130004A9344800F018FB16
:1012E00000940020ADF80400ADF80600ADF8080049
:1012F000ADF80C000C20ADF80A006946264801F054
:1013000078FD0121244801F000FE012240F2255120
:10131000214801F006FE26208DF8140002208DF8E9
:10132000150003208DF8160001208DF8170005A880
:1013300000F025FA41F61F41632000F050F800202C
:10134000164908800021164801F032FA06B010BD97
:101350000FB438B505A800901548009A049902F01A
:10136000F5FA00200090124802F02AF885B2002415
:101370000DE000BF4021084801F0A2FE0028F9D08E
:101380000B48015D044801F02DFE601C84B2AC42A4
:10139000EFDB38BC5DF814FB004400400C0000207B
:1013A000000800404C00002000080140000C0140F3
:1013B000DC01002010B501211F4801F0C2FC68B11A
:1013C0001E48008840F400401C49088001211A484A
:1013D00001F0C8FC0021184801F0EAF910BD7FB502
:1013E00005460C460121042000F05BFDADF80450D9
:1013F000ADF800400020ADF80600ADF802006946E7
:101400000D4800F079FE012211460B4801F0EBF97E
:101410000121094801F0CCF91E208DF80C000020B4
:101420008DF80D0002208DF80E0001208DF80F00C0
:1014300003A800F0A4F97FBD000800400C000020C4
:1014400010B5C821B34801F09EFF0020B2490880C2
:1014500010BD10B586B004464FF48060ADF814009E
:1014600001208DF8160018208DF8170005A9AB484B
:1014700000F04EFA4FF40060ADF8140004208DF82F
:10148000170005A9A54800F043FA27208DF80000B1
:1014900001208DF8010003208DF8020001208DF855
:1014A0000300684600F06BF901940020ADF80800D5
:1014B000ADF80A00ADF80C00ADF810000C20ADF846
:1014C0000E0001A9964801F094FC012240F225513A
:1014D000934801F026FD0121914801F016FDFFF728
:1014E000AFFF06B010BD10B540F225518C4801F099
:1014F000FDFD002839D08A4801F078FDC4B2242CC3
:1015000002D1002084490880834801880088401C5B
:10151000814A10807F484454007824281ED17D4899
:1015200000794D281AD17B484079432816D10A2CDE
:1015300014D150217B4801F026FF77480288754975
:10154000784801F007FF0120764981F8500000201B
:1015500071490880C8216F4801F015FF6E48008866
:10156000C82802DBC8206C49088010BD10B50446AD
:101570002146684801F012FF08B1012010BD00208B
:10158000FCE710B50020674981F8500081F8510050
:1015900081F878005021634801F0F5FE614852302F
:1015A000002101604160018181720B300160416066
:1015B000018181725D38A0F868106A300160416075
:1015C00081606A38A0F8761010BD044603E0214619
:1015D00055A002F0ABF9FAE7F8B50026514890F8AB
:1015E0005000002866D000204E4981F8500000BF0E
:1015F0005EE046B94FA14B4801F0D0FE041E55D124
:101600000120FFF7E2FF641C4AA1204601F0C6FE5C
:10161000051E48D0072E2ED2DFE806F02D040B1150
:10162000181F26002A1B21463E48523001F092FE28
:1016300022E02A1B2146684601F08CFE1CE02A1B92
:10164000214638485D3001F085FE15E02A1B214611
:101650003448683001F07EFE0EE02A1B21463148F6
:101660006A3001F077FE07E02A1B21462D487630CC
:1016700001F070FE00E000BF00BF2C4601202949A8
:1016800081F851009DF80000412803D1012081F824
:10169000780007E09DF80000562803D1002021497A
:1016A00081F8780002E00220FFF78FFF701CC6B2BD
:1016B000062E9EDDF8BD00B585B01A4890F85100A1
:1016C000002824D00020174981F85100084690F8DE
:1016D0007800E0B1002081F8780017A201F15200F3
:1016E00016A36A31CDE90113CDE9030216A0A1F1D9
:1016F0000D0317A218A100901B4802F007F91A4920
:101700001AA002F013F96421174801F03CFE05B05D
:1017100000BD00004904002010000020000C014022
:1017200000480040D00300204552524F5225640D1E
:101730000A0000002C000000227D0000222C2274F0
:10174000696D65223A220000222C2245223A2200AD
:101750007B224E223A2200002573257325732573C0
:1017600025732573257300006C03002025730D0A73
:101770000000000031490143314A1160704770B5E3
:10178000002100230F22C47804B32D4C246804F4F4
:10179000E064C4F5E064210AC1F10403CA4044785E
:1017A00004FA03F18478144021430901254C06789A
:1017B000A155047804F01F050124AC4005786D1193
:1017C000AD0005F1E025C5F8004109E0047804F01A
:1017D0001F050124AC401C4D0678761145F82640C3
:1017E00070BD1A4A0A400243154B1B1F1A6070470E
:1017F00039B1134A121D12680243114B1B1D1A60A6
:1018000006E00F4A121D126882430D4B1B1D1A6021
:101810007047042808D14FF0E021096941F0040124
:101820004FF0E022116107E04FF0E021096921F05B
:1018300004014FF0E0221161704700000000FA053A
:101840000CED00E000E400E080E100E080FFFF1F1D
:1018500010B50446CC48844208D10121042000F090
:101860002DFB0021042000F029FB46E0C7488442FC
:1018700008D10121082000F021FB0021082000F000
:101880001DFB3AE0C248844208D10121102000F03B
:1018900015FB0021102000F011FB2EE0BD48844212
:1018A00008D10121202000F009FB0021202000F0B8
:1018B00005FB22E0B848844208D10121402000F015
:1018C000FDFA0021402000F0F9FA16E0B348844206
:1018D00008D10121802000F0F1FA0021802000F0E1
:1018E000EDFA0AE0AE48844207D10121801500F0EC
:1018F000E5FA0021A01500F0E1FA10BD10B50121B4
:10190000084600F0DBFA0021012000F0D7FA10BDF4
:101910002DE9F04102460025002600200023002486
:10192000002791F803C00CF00F0591F803C00CF0EC
:10193000100CBCF1000F03D091F802C04CEA050571
:1019400091F800C0BCF1000F31D0146800202BE0EA
:101950004FF0010C0CFA00F3B1F800C00CEA0306DA
:101960009E4220D183004FF00F0C0CFA03F7BC43CA
:1019700005FA03FC4CEA040491F803C0BCF1280FFB
:1019800006D14FF0010C0CFA00FCC2F814C00AE0BA
:1019900091F803C0BCF1480F05D14FF0010C0CFACF
:1019A00000FCC2F810C0401C0828D1D31460B1F864
:1019B00000C0BCF1FF0F34DD546800202EE000F1C0
:1019C000080C4FF0010808FA0CF3B1F800C00CEA5B
:1019D00003069E4221D183004FF00F0C0CFA03F74F
:1019E000BC4305FA03FC4CEA040491F803C0BCF1C3
:1019F000280F05D100F1080C08FA0CF8C2F8148081
:101A000091F803C0BCF1480F07D100F1080C4FF06A
:101A1000010808FA0CF8C2F81080401C0828CED340
:101A20005460BDE8F0814FF6FF71018002218170A2
:101A30000421C17070470246002093680B400BB12F
:101A4000012000E0002070470146886880B270479E
:101A500002460020D3680B400BB1012000E00020BB
:101A600070470146C86880B27047016170474161A4
:101A700070470AB1016100E041617047C160704781
:101A80004FF480320A438261816182618269826996
:101A9000704702460020434B18684FF68073184089
:101AA00040EA021008433F4B186070473E49C86146
:101AB0007047F0B50A46002300240021002500F0FD
:101AC0000046B6F1004F02D1364EF16901E0354EC5
:101AD0007168C0F3034583B200F44016B6F5401FA9
:101AE00008D121F070612F4E766826F070662D4F78
:101AF0007E6012E000F48016B6F5801F06D1032642
:101B000006FA05F4A14341F0706106E0460D360186
:101B100003FA06F6B14341F0706122B1460D360179
:101B200003FA06F6314300F00046B6F1004F02D149
:101B30001C4EF16101E01B4E7160F0BD30B500221A
:101B40008B071C0F0F2303FA04F2164B08338C107B
:101B500053F824309343134C08348D1044F8253047
:101B600023468C1053F824308C07240F00FA04F419
:101B700023430C4C08348D1044F8253030BD0A49FD
:101B8000DC3108607047000000080140000C014093
:101B9000001001400014014000180140001C0140E9
:101BA000002001400000014000002042DF480068A2
:101BB00040F00100DD49086008464068DC49084003
:101BC000DA49486008460068DA490840D7490860A1
:101BD0000846006820F4802008600846406820F429
:101BE000FE0048604FF41F0088607047CF490968C5
:101BF00021F48031CD4A11601146096821F4802119
:101C00001160B0F5803F03D0B0F5802F0ED106E013
:101C1000C649096841F48031C44A116007E0C349EC
:101C2000096841F4A021C14A116000E000BF00BF73
:101C3000704710B501460022002300204A11012AF6
:101C400002D1BA4C236806E0022A02D1B74C236ABB
:101C500001E0B64C636A01F01F02012494401C406D
:101C60000CB1012000E0002010BD38B5002000902C
:101C70000024002500BF3120FFF7DBFF0546009858
:101C8000401C00900098B0F5A06F01D0002DF2D05C
:101C90003120FFF7CEFF08B1012400E000242046E8
:101CA00038BD01460020A14A106820F0F80040EA43
:101CB000C10010607047A0490860704702460020CC
:101CC0009A4B586820F47C1042EA01031843974B62
:101CD0005860704798490866704701460020934A4B
:101CE000506820F003000843506070478F484068F8
:101CF00000F00C007047014600208C4A506820F02C
:101D0000F00008435060704701460020874A506841
:101D100020F4E06008435060704701460020834A89
:101D2000506820F4605040EAC1005060704729B10B
:101D30007E4A527A02437D4B5A7204E07B4A527AC1
:101D400082437A4B5A7270477B49D831086070479A
:101D500001460020754A506820F440400843506016
:101D600070470021714A20321170704A82F82010A9
:101D7000012802D004280AD104E001216B4A203254
:101D8000117005E00521694A2032117000E000BFA2
:101D900000BF70476949086070476449096A014398
:101DA000624A11627047654944390860704730B52E
:101DB00000210022002400235C4D6D6805F00C0119
:101DC00021B1042905D0082923D105E05C4D056027
:101DD00022E05B4D05601FE0544D6D6805F4701204
:101DE000524D6D6805F48034022505EB92421CB912
:101DF000544D554305600BE04C4D6D6805F40035BE
:101E00001DB1504D5543056002E04D4D55430560F1
:101E100002E04B4D056000BF00BF444D6D6805F00A
:101E2000F0010909484D6B5C0568DD4045603F4D98
:101E30006D6805F4E061090A434D6B5C4568DD405F
:101E400085603A4D6D6805F46051C90A3E4D6B5C82
:101E50004568DD40C560354D6D6805F44041890B2E
:101E60003A4D6B5CC568B5FBF3F5056130BD29B132
:101E70002E4A526902432D4B5A6104E02B4A5269A3
:101E800082432A4B5A61704729B1284A926902431A
:101E9000264B9A6104E0254A92698243234B9A615A
:101EA000704729B1214AD2690243204BDA6104E02C
:101EB0001E4AD26982431D4BDA61704729B11B4A21
:101EC000D2680243194BDA6004E0184AD2688243B0
:101ED000164BDA60704729B1144A12690243134B5A
:101EE0001A6104E0114A12698243104B1A6170476B
:101EF00012494039086070470F49C86470470B4960
:101F0000C87170470948406A40F0807007494862CC
:101F1000704701460020054A92680A400AB1012034
:101F200000E00020704701498872704700100240AD
:101F30000000FFF8FFFFF6FE00004242800442422C
:101F400000127A0000093D00140000202400002047
:101F500010B50446FE48844208D10121C014FFF7A1
:101F6000ADFF0021E014FFF7A9FFC4E0B4F1804FFA
:101F700008D101210846FFF7AEFF00210120FFF73D
:101F8000AAFFB8E0F348844208D101210220FFF7FC
:101F9000A2FF00210220FFF79EFFACE0EE48844242
:101FA00008D101210420FFF796FF00210420FFF74C
:101FB00092FFA0E0E948844208D101210820FFF700
:101FC0008AFF00210820FFF786FF94E0E44884425E
:101FD00008D101211020FFF77EFF00211020FFF71C
:101FE0007AFF88E0DF48844208D101212020FFF7F2
:101FF00072FF00212020FFF76EFF7CE0DA48844268
:1020000008D101214014FFF759FF00216014FFF7A8
:1020100055FF70E0D548844209D10121C804FFF77B
:102020004DFF00214FF40020FFF748FF63E0D04848
:10203000844209D101210805FFF740FF00214FF438
:102040008010FFF73BFF56E0CA48844209D10121C6
:102050004805FFF733FF00214FF40010FFF72EFF74
:1020600049E0C548844208D101214020FFF733FFF1
:1020700000214020FFF72FFF3DE0C048844208D1F7
:1020800001218020FFF727FF00218020FFF723FF99
:1020900031E0BB48844208D101218015FFF71BFFC6
:1020A0000021A015FFF717FF25E0B648844209D1AB
:1020B00001210804FFF702FF00214FF48030FFF7F1
:1020C000FDFE18E0B048844209D101214804FFF721
:1020D000F5FE00214FF40030FFF7F0FE0BE0AB48B7
:1020E000844208D101218804FFF7E8FE00214FF463
:1020F0008020FFF7E3FE10BD00220288944B984237
:102100000ED0994B98420BD0B0F1804F08D0914B34
:10211000984205D0904B984202D0904B984204D1FF
:102120004FF68F731A404B881A438D4B984207D055
:102130008C4B984204D04FF6FF431A40CB881A4389
:1021400002808B8883850B880385814B98420BD056
:10215000854B984208D08B4B984205D08A4B9842C9
:1021600002D08A4B984201D10B7A038601238382E5
:10217000704770B5002400220023058C4FF6FE76D0
:1021800035400584028C8388048B4FF68F752C4074
:10219000B51E2C400D882C43751E2A400D892A43FC
:1021A0004D882A436A4DA8420BD06F4DA84208D0F3
:1021B000744DA84205D0744DA84202D0734DA84278
:1021C00013D14FF6F7752A404D892A434FF6FB7518
:1021D0002A408D882A434FF6FF652B404FF6FF5566
:1021E0002B408D892B43CD892B4383800483CD885D
:1021F0008586028470BD70B5002400220023058C02
:102200004FF6EF7635400584028C8388048B48F6C0
:10221000FF752C404FF6FF452C400D884FF6FF769A
:1022200006EA05252C434FF6DF752A400D8906EA9C
:1022300005152A434D8806EA05152A43444DA84250
:1022400002D0494DA8421DD14FF67F752A404D89D5
:102250004FF6FF7606EA05152A434FF6BF752A406A
:102260008D8806EA05152A434FF6FF352B404FF2BD
:10227000FF752B408D8906EA85052B43CD8906EA3B
:1022800085052B4383800483CD880587028470BD38
:1022900070B5002400220023058C4FF6FF66354000
:1022A0000584028C8388848B4FF68F752C404FF603
:1022B000FC752C400D882C434FF6FF552A400D89A4
:1022C0004FF6FF7606EA05252A434D8806EA0525DE
:1022D0002A431F4DA84202D0234DA8421DD14FF2E0
:1022E000FF752A404D894FF6FF7606EA05252A43F9
:1022F0004FF6FF352A408D8806EA05252A434EF61B
:10230000FF752B404DF6FF752B408D8906EA0515AC
:102310002B43CD8906EA05152B4383808483CD8822
:102320008587028470BD70B5002200230024058CCF
:102330004EF6FF7635400584038C8488828B48F600
:10234000FF752A404FF6FF452A400D8820E0000027
:10235000002C01400004004000080040000C004038
:10236000001000400014004000340140004C0140C7
:10237000005001400054014000180040001C004083
:10238000002000400040014000440140004801405E
:102390004FF6FF7606EA05252A434DF6FF752B40DA
:1023A0000D8906EA05352B434D8806EA05352B4392
:1023B000FA4DA84202D0FA4DA84208D14BF6FF755B
:1023C0002C408D894FF6FF7606EA85152C438480D4
:1023D0008283CD88A0F84050038470BD828B4FF279
:1023E000FF331A408283828B4FF6FF7303EA012387
:1023F0001A4382837047F0B50C461546002200212F
:102400000026078C4EF6FF7C07EA0C070784828BB8
:10241000018C4FF6FF7707EA043640F6FF473A4053
:102420004FF6FF7707EA05273A434FF6FF7707EAAB
:1024300003373A43D94FB8420ED0D94FB8420BD0E8
:10244000B0F1804F08D0D74FB84205D0D64FB84230
:1024500002D0D64FB84206D14DF6FF77394046F448
:102460008057394305E047F6FF57394044F4805719
:10247000394382830184F0BD828B4FF6F3731A4097
:102480008283828B0A4382837047F0B50C461546DF
:10249000002200210026078C4FF6FF6C07EA0C078C
:1024A0000784828B018C4FF6FF7707EA04264FF6EC
:1024B0000C773A404FF6FF7707EA03172F433A436A
:1024C000B64FB8420ED0B64FB8420BD0B0F1804FE5
:1024D00008D0B44FB84205D0B34FB84202D0B34F82
:1024E000B84206D14FF6FF57394046F4807739435A
:1024F00005E04FF2FF57394044F480773943828337
:102500000184F0BD028B4FF2FF331A400283028B2D
:102510004FF6FF7303EA01231A4302837047F0B5B5
:102520000C461546002200210026078C4FF6EF7C52
:1025300007EA0C070784028B018C4FF6FF7707EA46
:10254000041640F6FF473A404FF6FF7707EA033795
:102550003A434FF6FF7707EA05273A438F4FB842D1
:102560000ED08F4FB8420BD0B0F1804F08D08D4FB6
:10257000B84205D08C4FB84202D08C4FB84206D139
:102580004FF6DF77394046F01007394305E04FF644
:102590005F77394044F01007394302830184F0BD6E
:1025A000028B4FF6F3731A400283028B0A430283B5
:1025B0007047F0B50C46154600220021068C4FF6F8
:1025C000FE773E400684028B018C4FF60C7632403B
:1025D0007E1C06EA03162E433243704EB0420ED0E4
:1025E0006F4EB0420BD0B0F1804F08D06D4EB0426C
:1025F00005D06D4EB04202D06C4EB04206D14FF6BF
:10260000FD76314044F00106314305E04FF6F576A2
:10261000314044F00106314302830184F0BD70B5BE
:1026200005460C465D4885420ED05D4885420BD07C
:10263000B5F1804F08D05B48854205D05A488542A5
:1026400002D05A48854200D100E000BF208850B92E
:102650002389A28861882846FFF7ABFFE1882846D6
:10266000FFF79EFF25E0208804280AD12389A2884D
:1026700061882846FFF753FFE1882846FFF742FFAD
:1026800017E0208808280AD12389A2886188284673
:10269000FFF7FBFEE1882846FFF7EEFE09E02389FD
:1026A000A28861882846FFF7A6FEE1882846FFF742
:1026B00095FE70BD2DE9F04105460C460026012728
:1026C000608808B9022600E00026A088012801D110
:1026D000022700E001272088A0B92389A288618809
:1026E0002846FFF766FFE1882846FFF759FF238950
:1026F0003A4631462846FFF712FFE1882846FFF7A1
:1027000001FF13E02389A28861882846FFF707FFAD
:10271000E1882846FFF7F6FE23893A4631462846E7
:10272000FFF747FFE1882846FFF73AFFBDE8F08151
:102730000A884B881A438B881A43CB881A430B8923
:102740001A434B891A438B891A43A0F844207047D7
:102750004FF6FF71818000210180C18041800172AC
:1027600070470021018041808180C18001814181C9
:102770008181C181704700210180418001218180D8
:102780000021C1800181704700210180418081804A
:10279000C18001814181818170470000002C01408E
:1027A000003401400004004000080040000C0040DC
:1027B00021B1028842F00102028004E002884FF653
:1027C000FE731A400280704731B1B0F8442042F4E1
:1027D0000042A0F8442005E0B0F84420C2F30E0205
:1027E000A0F8442070471AB183890B43838102E02B
:1027F00083898B43838170478182704741EA02035A
:10280000A0F8483070471AB183890B43838102E0F6
:1028100083898B438381704701894FF6F872114099
:10282000018170470A46002101894FF68F731940D4
:1028300011430181704730B504460D4629462046B4
:10284000FFF7F0FF208940F00700208130BD2DE91F
:10285000F04104460D4616461F46602D06D13B4604
:10286000012231462046FFF75AFE05E03B46012291
:1028700031462046FFF79DFE29462046FFF7D2FF4E
:10288000208940F007002081BDE8F08130B50C467A
:1028900000210189C9B24FF6FF7505EA03251543EA
:1028A00025432943018130BD2DE9F04105460E46FF
:1028B00017469846002443463A4631462846FFF7D5
:1028C000E5FF2C894FF6F870044044F007044FF6FA
:1028D0008F70044044F070042C81BDE8F081F0B5A5
:1028E00004460D4616461F463B46324629462046BC
:1028F000FFF7CCFF208940F480402081F0BD0185A6
:10290000828270470A46002101884FF68F73194072
:10291000114301807047F0B50C4615461E46002154
:10292000002200230189028B038C4FF6F87739408F
:1029300021434FF6FC473A4040F201173A434FF625
:10294000DD773B404FF6FF7707EA06172F433B43FF
:10295000018102830384F0BD0A460021018B4FF6FA
:102960008F7319401143018370470A460021018B80
:1029700048F6FF7319404FF6FF7303EA0223194329
:10298000018370470A460021818B4FF68F731940EF
:102990001143818370470A460021818B48F6FF73FB
:1029A00019404FF6FF7303EA0223194381837047EE
:1029B00021B1028842F08002028004E002884FF6D2
:1029C0007F731A400280704721B1828842F004026E
:1029D000828004E082884FF6FB731A408280704741
:1029E00021B1828842F00802828004E082884FF69A
:1029F000F7731A408280704721B1828842F0010249
:102A0000828004E082884FF6FE731A40828070470D
:102A10000A460021018B4FF6F773194011430183D9
:102A200070470A460021018B4FF2FF7319404FF6A1
:102A3000FF7303EA02231943018370470A4600210A
:102A4000818B4FF6F77319401143818370470A4613
:102A50000021818B4FF2FF7319404FF6FF7303EA99
:102A600002231943818370470A460021018B4FF6E8
:102A7000FB7319401143018370470A460021018B03
:102A80004FF6FF3319404FF6FF7303EA0223194351
:102A9000018370470A460021818B4FF6FB73194072
:102AA0001143818370470A460021818B4FF6FF3323
:102AB00019404FF6FF7303EA0223194381837047DD
:102AC0000A460021018B4FF67F73194011430183A1
:102AD00070470A460021018BC1F30E014FF6FF73C8
:102AE00003EA02231943018370470A460021818BC0
:102AF0004FF67F7319401143818370470A460021C6
:102B0000818BC1F30E014FF6FF7303EA02231943D1
:102B1000818370470A460021018C4FF6FD731940EE
:102B20001143018470470A460021018C4FF6F77368
:102B300019401143018470470A460021018C4FF669
:102B4000DF7319404FF6FF7303EA02131943018440
:102B500070470A460021018C4FF67F7319404FF6EB
:102B6000FF7303EA02131943018470470A460021E8
:102B7000018C4FF6FF5319404FF6FF7303EA02230F
:102B80001943018470470A460021018C4FF2FF73FC
:102B900019404FF6FF7303EA02231943018470477B
:102BA0000A460021018C4DF6FF7319404FF6FF7362
:102BB00003EA023319430184704730B5002301242E
:102BC0008C40A3B2048C9C430484048C02FA01F56B
:102BD000ADB22C43048430BD30B5002304248C40B6
:102BE000A3B2048C9C430484048C02FA01F5ADB2B8
:102BF0002C43048430BD70B50346002000241846E1
:102C0000183001258D40ACB21D8CA5431D8409B13F
:102C1000082909D100EB6100056825F07005056001
:102C20000568154305600EE00D1FC5F34E052844E9
:102C3000056825F4E045056005684FF6FF7606EA6D
:102C400002263543056070BD21B1028842F00202C0
:102C5000028004E002884FF6FD731A40028070473C
:102C600021B1028842F00402028004E002884FF69B
:102C7000FB731A400280704721B1828842F08002C3
:102C8000828004E082884FF67F731A40828070470A
:102C900002884FF6F7731A40028002880A430280C6
:102CA000704782884FF68F731A40828082880A4369
:102CB0008280704702894FF6F8731A4002810289B8
:102CC0000A430281704702894FF67F731A400281DE
:102CD00002890A4302817047818470478185704769
:102CE000818670470187704781877047A0F8401040
:102CF000704702884FF6FF431A40028002880A4359
:102D0000028070470146888E70470146088F7047E1
:102D10000146888F70470146B1F840007047014670
:102D2000888C70470146088D704702460020138A40
:102D30000B400BB1012000E000207047CA43028223
:102D4000704730B50246002000230024158A05EAAA
:102D50000103958905EA010413B10CB1012000E0DB
:102D6000002030BDCA4302827047000010B50446FF
:102D7000FB48844209D101218803FFF79FF8002115
:102D80004FF48040FFF79AF832E0F648844209D1C8
:102D900001214804FFF79FF800214FF40030FFF7AE
:102DA0009AF825E0F048844209D101218804FFF710
:102DB00092F800214FF48020FFF78DF818E0EB48DF
:102DC000844209D10121C804FFF785F800214FF49E
:102DD0000020FFF780F80BE0E548844208D101218C
:102DE0000805FFF778F800214FF48010FFF773F81B
:102DF00010BD2DE9F04786B005460E460024A246D8
:102E000000BFA1460027B08900B100BF2F462C8A21
:102E10004CF6FF700440F08804432C82AC894EF6D7
:102E2000F3100440B0883189084371890843044392
:102E3000AC81AC8A4FF6FF400440B0890443AC82B9
:102E400001A8FEF7B4FFC648874202D1DDF810A002
:102E500001E0DDF80CA0A88900F4004040B10AEBC5
:102E6000CA0000EB0A1031684900B0FBF1F807E036
:102E70000AEBCA0000EB0A1031688900B0FBF1F8D8
:102E80006420B8FBF0F004012009642101FB1089E3
:102E9000A88900F4004040B1322000EBC900B0FB2B
:102EA000F1F000F00700044308E0322000EB0910C5
:102EB0006421B0FBF1F000F00F0004432C8106B058
:102EC000BDE8F0874FF41651016000218180C18078
:102ED00001810C21418100218181704710B502469A
:102EE0000020108A4FF2FF0318400B884C882343C0
:102EF0008C882343CC8823431843108210BD0021C3
:102F0000018041808180C180704721B1828942F473
:102F10000052828104E082894DF6FF731A4082815B
:102F20007047F0B50346002400260025002040F637
:102F30006A17B94200D100BF1846C1F3421401F02C
:102F40001F06012707FA06F5012C01D10C3004E019
:102F5000022C01D1103000E014301AB107682F4361
:102F6000076002E00768AF430760F0BD1AB1838ACB
:102F70000B43838202E0838A8B4383827047028AF9
:102F80004FF6F0731A400282028A0A4302827047A7
:102F900082894FF2FF731A40828182890A438281BB
:102FA000704721B1828942F00202828104E0828965
:102FB0004FF6FD731A4082817047028A4FF6DF7325
:102FC0001A400282028A0A430282704721B1028AB1
:102FD00042F48042028204E0028A4BF6FF731A40F8
:102FE00002827047C1F308028280704701468888D8
:102FF000C0F308007047818941F001018181704769
:10300000028BD2B20283028B42EA01220283704712
:10301000028B02F47F420283028B0A4302837047D1
:1030200021B1828A42F02002828204E0828A4FF635
:10303000DF731A408282704721B1828A42F0100207
:10304000828204E0828A4FF6EF731A4082827047D0
:1030500021B1828A42F00802828204E0828A4FF61D
:10306000F7731A408282704721B1828942F400428C
:10307000828103E08289C2F30E028281704721B10E
:10308000828A42F40062828204E0828A4FF2FF73F5
:103090001A4082827047828A4FF6FB731A408282FE
:1030A000828A0A438282704721B1828A42F00202F8
:1030B000828204E0828A4FF6FD731A408282704752
:1030C00002460020B1F5007F00D100BF13880B40FD
:1030D0000BB1012000E00020704701F40072B2F54E
:1030E000007F00D100BFCA430280704770B502461E
:1030F000002400230025002040F66A16B14200D1CA
:1031000000BFC1F3421501F01F03012606FA03F3C5
:10311000012D02D19689334006E0022D02D1168A94
:10312000334001E0968A33400C12012606FA04F47B
:103130001688344013B10CB1012000E0002070BDAE
:1031400010B50022002340F66A14A14200D100BF4E
:103150000A1201249440A3B2DC43048010BD000095
:10316000003801400044004000480040004C00404E
:10317000005000400CB50020019000906C480068A1
:1031800040F480306A49086000BF6948006800F474
:10319000003000900198401C0190009818B90198E7
:1031A000B0F5A06FF1D16248006800F4003010B1B2
:1031B0000120009001E0002000900098012843D1F8
:1031C0005C48006840F010005A49086008460068F2
:1031D00020F0030008600846006840F00200086024
:1031E000534840685249486008464068486008466D
:1031F000406840F4806048600846406820F47C10D5
:1032000048600846406840F4E81048600846006896
:1032100040F08070086000BF4548006800F0007012
:103220000028F9D04248406820F003004049486037
:103230000846406840F00200486000BF3C484068D3
:1032400000F00C000828F9D10CBD10B5FFF792FF73
:1032500010BD10B53648006840F0010034490860E0
:1032600008464068344908403149486008460068CB
:10327000324908402E4908600846006820F4802042
:1032800008600846406820F4FE0048604FF41F00C4
:103290008860FFF7DAFF4FF000602949086010BD31
:1032A00010B5002100200022214B5B6803F00C01C7
:1032B00021B1042906D0082928D107E0214B224C4E
:1032C000236027E01F4B204C236023E0184B5B68F2
:1032D00003F47010164B5B6803F48032022303EB97
:1032E000904022B9194B4343174C23600DE0104B1B
:1032F0005B6803F4003323B1144B4343124C236047
:1033000003E0104B4343104C236003E00D4B0E4C85
:10331000236000BF00BF064B5B68C3F303130C4C74
:10332000E15C094B1B68CB40074C236010BD0000DB
:1033300000100240002002400000FFF8FFFFF6FEF0
:1033400008ED00E000127A002800002000093D008E
:103350002C00002040EA01039B0703D009E008C9C4
:10336000121F08C0042AFAD203E011F8013B00F84A
:10337000013B521EF9D27047D2B201E000F8012B96
:10338000491EFBD270470022F6E710B513460A46E5
:1033900004461946FFF7F0FF204610BD30B505463C
:1033A0002A460B4612F8010B13F8014B08B1A04254
:1033B000F8D01CB1002802D06D1CF1E7284630BDC2
:1033C000421C10F8011B0029FBD1801A704730B550
:1033D0000B46014600202022012409E021FA02F5D3
:1033E0009D4205D303FA02F5491B04FA02F528446D
:1033F000151EA2F10102F1DC30BD2DE9F05F05469A
:10340000002092469B4688460646814640241BE0A3
:10341000284641464746224600F0F9F953465A46A7
:10342000C01A914110D311461846224600F0E0F927
:103430002D1A67EB01084F4622460120002100F0BB
:10344000D7F917EB00094E41201EA4F10104DFDC7F
:10345000484631462A464346BDE8F09F2DE9FE4FD7
:10346000804681EA0300C00F0C46009021F0004125
:1034700023F00045B8EB0200A94105D240462146A1
:1034800090461C460B46024623F00040104347D0AE
:10349000270DC7F30A00C3F30A510290401A0190A6
:1034A00040286BDAC3F3130040F4801B0098924667
:1034B00020B10023D2EB030A63EB0B0B01985946B2
:1034C000C0F14002504600F093F906460D465046C2
:1034D0005946019A00F0ABF910EB08006141002455
:1034E00087EA115284EAE7731A4340D0009A62B324
:1034F000019A012A4FEA075215DC001B61EB020119
:103500004FF0004202EA0752CDE90042001C41F5AB
:10351000801132462B4600F0ABF903B0BDE8F08FC6
:1035200040462146F9E7001B61EB0201001C41F512
:10353000801300185B412018A2F5001747EB030128
:1035400040EAD570B6196D4111E06D084FEA3606B4
:1035500045EAC0754FEA0752001B61EB0201001CEF
:1035600041F5801149084FEA3000001951413246B7
:103570002B4603B0BDE8F04F00F06BB90098012274
:1035800040000023D0EB020263EBE0730098214679
:103590004FEAE074B8EB000061EB0401E9E783F067
:1035A00000435BE781F0004158E72DE9FE4F81EAD7
:1035B000030404F0004421F0004100944FF0000B9C
:1035C00023F0004350EA01045ED052EA03045BD0CA
:1035D000C3F30A54C1F30A552C44A4F2F334019402
:1035E000A0FB0254C1F3130141F48011C3F3130390
:1035F00043F4801301FB024400FB034E840A970A44
:1036000044EA815447EA8357A4FB076802958D0A70
:1036100005FB07854FEA932C04FB0C542705029DFC
:103620004FEA065847EA1637B5EB08056EEB070C6C
:10363000870E920E47EA811742EA8312A7FB020126
:10364000B6EB0B0164EB00042B0D43EA0C335E1860
:1036500044EB1C50DA465146E7FB0201C5F3130464
:103660004FEA0B3343EA14534FEA0432019C43EA16
:103670000603A4F10C040294009CCDE900B400F010
:10368000F7F803B0BDE8F08F00200146F9E72DE917
:10369000F04D81EA030404F0004B21F0004514468C
:1036A0004FF0000A23F0004150EA050220D054EA0E
:1036B00001021DD0C5F30A570246C5F31303C1F337
:1036C0001300C1F30A5640F4801543F48013A7EBAE
:1036D0000608101BD64608F2FD3873EB050002D32E
:1036E00008F1010801E092185B41B8F1000F03DA1C
:1036F00000200146BDE8F08D00204FF48011064601
:1037000084460EE0171B73EB050705D3121B63EB12
:10371000050306434CEA010C49084FEA30009218B1
:103720005B4150EA0107EDD152EA030012D082EA70
:10373000040083EA0501084305D0101BAB4106D203
:103740000122002306E000224FF0004302E06FF068
:10375000010253101AEB06004CEB085110EB0A0063
:1037600041EB0B01BDE8F04D00F073B8C1F30A5214
:10377000C1F3130140F2FF3341F480119A4202DA9F
:1037800000200146704740F233439A42A2F233428E
:1037900002DC524200F03BB800F02AB830B5041EFB
:1037A00071F1000404DB4FF00044404264EB01017E
:1037B000141E73F1000405DB1C464FF00043524217
:1037C00063EB0403994208BF904230BD064C074D9D
:1037D00006E0E06840F0010394E8070098471034E1
:1037E000AC42F6D3FCF786FC0C4500082C450008DB
:1037F000202A04DB203A00FA02F1002070479140B1
:10380000C2F1200320FA03F3194390407047202AA5
:1038100004DB203A21FA02F00021704721FA02F37A
:10382000D040C2F120029140084319467047202A37
:1038300006DBCB17203A41FA02F043EAE07306E0D8
:1038400041FA02F3D040C2F12002914008431946E8
:10385000704710B5141E73F1000408DA401C41F1E2
:10386000000192185B411A4301D120F0010010BD04
:103870002DE9F04D92469B4611B1B1FA81F202E07A
:10388000B0FA80F220329046FFF7B2FF04460F46AE
:1038900040EA0A0041EA0B0153465A46084313D056
:1038A000114653EA010019D0C8F140025046FFF713
:1038B000AEFF05460E46504659464246FFF798FF72
:1038C000084305D0012004E020463946BDE8F08DCC
:1038D0000020054346EAE0762C4337430A98630507
:1038E000E40AA0EB08000022FD0A44EA47540A302B
:1038F00002D500200146E9E7010510196941DDE91B
:10390000084500196941BDE8F04DA2E70FB4054B29
:1039100010B503A9044A029800F05CFA10BC5DF8E7
:1039200014FB0000090300083C0000200FB4054B05
:1039300010B503A9044A029800F0ECF810BC5DF839
:1039400014FB0000090300083C00002037B51446B2
:103950000846064B6A46214600F03CFA0446694692
:10396000002000F0CEFD20463EBD000003450008CB
:1039700002E008C8121F08C1002AFAD17047704738
:10398000002001E001C1121F002AFBD17047000096
:103990002DE9FF5F82B00021DDE90430020DDDF882
:1039A00040B0034318D044F61050A2F2FF32424315
:1039B0001514119801281FD0A5EB0B00401C5FEADD
:1039C000000A4FF000064E4FDFF83891B0465046DF
:1039D00015D5CAF1000413E0119801244AA3012867
:1039E00001D16FEA0B010298119AC0E90031C0E9D8
:1039F000024206B0BDE8F09FCBF10000DFE70446CD
:103A00000021404A491842EB0450CDE9001012E071
:103A1000E00707D032463B4640464946FFF7C5FD22
:103A20008046894632463B4610461946FFF7BDFDA3
:103A300006460F466410002CEAD1DDE90401DDE9F9
:103A40000023BAF1000F06DAFFF7AFFD42464B46FE
:103A5000FFF7ABFD05E0FFF71AFE42464B46FFF7C6
:103A600016FE04460E460022284BFFF797FE03D8A9
:103A70004FF0FF30014607E00022254B204631463B
:103A8000FFF7ECFCFFF772FE102409E0002C0ADBC4
:103A90000A220023FFF7B1FC039B30321A55641E43
:103AA00050EA0102F2D1641C039AC4F111031444D8
:103AB000119A012A03D0012208430DD10AE00843DC
:103AC00004D000204FF0110B119072E7A3EB0B050F
:103AD0006D1E0DE05B4504DD4FF0000205F10105B0
:103AE00004E003DA4FF00002A5F10105002AECD052
:103AF00002981199C0E90231C0E9004579E7000058
:103B0000000014400000F03F300000000000F043CF
:103B10000000E03F2DE9FF4F8DB09B460F46044665
:103B2000002606E025280BD05A460F999047641CC2
:103B3000761C20780028F5D111B03046BDE8F08F12
:103B40000025A8460122984900E0054314F8013FEA
:103B5000203B02FA03F00842F7D120782E2817D133
:103B600014F8010F45F004052A280ED06FF02F023B
:103B70002078A0F1300109290AD808EB880102EB6E
:103B8000410100EB0108641CF2E757F8048B641C48
:103B900020786C280DD004DC4C2812D06A2811D172
:103BA00004E074280DD07A280CD10AE045F4001501
:103BB00007E0617845F48015814202D1641C05F567
:103BC0008015641C2278692A45D008DC002AB3D00D
:103BD000582A69D0632A10D0642A08D13BE0702AA1
:103BE00067D0732A13D0752A5CD0782A5CD010462F
:103BF0005A460F999047761CD3E017F8040B8DF8BE
:103C0000000000208DF80100E946012003E057F88C
:103C1000049B4FF0FF3069074FF0000501D40AE024
:103C20006D1C45450DDA8542FADB19F805100029AF
:103C3000F6D106E06D1C8542FCDB19F80510002961
:103C4000F8D12E4404E019F8010B5A460F99904719
:103C50006D1EF8D2A5E00A200021CDE90801C5F3C8
:103C6000025002280DD001CFC117031E71F10003CD
:103C70000DDA4FF0000CD0EB0C006CEB01012D23A2
:103C800008E0FF1D27F00707F7E80201EDE72B0525
:103C900004D52B238DF8283001233BE0EB0739D0E6
:103CA0002023F7E70A2000E010200021CDE90801D9
:103CB00007E01020002145F00405CDE908014FF090
:103CC0000808C5F3025002280FD001CF00214FF0A1
:103CD000000A2B071FD5702A0DD0DDE908C38CF030
:103CE000100C5CEA030C0CD015E0FF1D27F0070751
:103CF000F7E80201EBE740228DF828204FF0010A97
:103D00000BE050EA010306D030238DF828308DF8FF
:103D1000292002239A46582A04D024A20DF1200912
:103D20000B9209E026A2F9E7DDE90823FFF765FB1E
:103D30000B9B9B5C09F8013D50EA0102F4D1ADEB0D
:103D4000090020300890680701D44FF00108089955
:103D5000884502DDA8EB010000E000208046002538
:103D600006E00AA85A46405D0F9990476D1C761CE4
:103D70005545F6DB04E030205A460F999047761CF3
:103D8000B8F10001A8F10108F5DC05E019F8010B14
:103D90005A460F999047761C0899481E08900029AA
:103DA000F4DC641CC5E60000092801003031323320
:103DB0003435363738396162636465660000000067
:103DC0003031323334353637383941424344454651
:103DD000000000002DE9FF4F95B09B46894606463E
:103DE00000250FE2252877D100242746F84A012133
:103DF000059400E0044316F8013F203B01FA03F06C
:103E00001042F7D130782A2811D06FF02F03307884
:103E1000A0F13002092A16D8059A44F0020402EBF8
:103E2000820203EB42021044761C0590EFE759F83A
:103E3000042B0592002A03DA504244F40054059002
:103E400044F00204761C30782E2816D116F8010FA3
:103E500044F004042A280DD06FF02F023078A0F12E
:103E60003003092B09D807EB870302EB4303C7187C
:103E7000761CF3E759F8047B761C30786C280FD059
:103E800006DC4C2817D068280DD06A2814D104E02D
:103E9000742810D07A280FD10DE044F400140AE001
:103EA00044F4801401E044F440147278824202D158
:103EB00004F58014761C761C307866280BD013DC51
:103EC000582877D009DC002875D04528F6D0462838
:103ED000F4D047281AD19DE118E0632835D0642832
:103EE00079D0652812D195E1702873D008DC672855
:103EF000F1D069286FD06E280DD06F2806D1B5E0BB
:103F000073282CD0752875D0782874D05A46179904
:103F100090476D1C75E1C4F30250022809D00328B4
:103F20000DD0D9F8001004280DD00D6009F1040956
:103F300067E1D9F80010EA17C1E90052F6E7D9F8AD
:103F400000100D80F2E70D70F0E719F8041B8DF8F2
:103F5000001000208DF80100EA46012003E059F826
:103F600004AB4FF0FF3061074FF0000102D40DE0C9
:103F700008F101018846B9420FDA8045F8DB1AF8EA
:103F800008100029F4D108E008F1010188468142B7
:103F9000FADB1AF808100029F6D105985B46A0EB69
:103FA000080721463846179A00F094FA284400EB97
:103FB000080507E04DE029E10DE01AF8010B5A462B
:103FC00017999047B8F10108F7D25B462146384669
:103FD000179A13E142E00A220092C4F302524FF012
:103FE000000A022A08D059F804CB032A4FEAEC71E0
:103FF0000AD00DE029E02AE009F1070121F00702CB
:10400000F2E802C1914609E00FFA8CFC4FEAEC712C
:10401000042A03D14FFA8CFC4FEAEC71002907DA2D
:104020000A460021DCF1000C61EB02012D2202E0C6
:10403000220504D52B228DF80420012203E0E2079B
:1040400001D02022F7E7904659E00A2102E0102231
:104050000DE010214FF0000A00910BE010224FF00C
:10406000000A44F004040827009203E008224FF0FD
:10407000000A0092C4F30252022A05D059F804CB78
:104080000021032A08D009E009F1070121F0070205
:10409000F2E802C1914605E01FFA8CFC042A01D126
:1040A0000CF0FF0C4FF00008220728D5702806D02E
:1040B000009B83F0100353EA0A0305D00EE0402270
:1040C0008DF80420012208E05CEA010206D03022CB
:1040D0008DF804208DF8050002229046009B83F0A5
:1040E000080353EA0A030AD15CEA010201D162071C
:1040F00005D530228DF804204FF001087F1E582886
:1041000004D034A003900EA802900DE036A0F9E789
:1041100053466046009AFFF770F984460398825C24
:104120000298401E029002705CEA0100F0D10298F1
:1041300006A9081A00F1200A600702D524F4803489
:1041400000E00127574502DDA7EB0A0000E0002050
:1041500000EB0A01009005984144401A0590E003E5
:1041600006D45B462146179A059800F0B3F905443A
:10417000002706E001A85A46C05D179990476D1CBC
:104180007F1C4745F6DBE0030CD55B462146179ABA
:10419000059800F09FF9054404E030205A4617992D
:1041A00090476D1C0099481E00900029F5DC08E03E
:1041B000029802995A460078491C02911799904733
:1041C0006D1CBAF10001AAF1010AF1DC65E1000001
:1041D00009280100303132333435363738396162DD
:1041E00063646566000000003031323334353637A1
:1041F00038394142434445460000000000F058F978
:104200000544761C307800287FF4ECAD19B02846C0
:10421000BDE8F08F620700D4062709F1070222F0FB
:10422000070CFCE80223E14603F000485FEA080CB3
:1042300002D00FF2702C0DE05FEA045C02D50FF2A1
:10424000682C07E05FEAC47C02D00FF2602C01E02A
:10425000AFF2700C4FF0FF3823F00043CDF850C0A0
:1042600065280CD006DC452809D046281DD04728F3
:104270003DD13DE0662818D067287ED138E0002186
:10428000112F01DB112000E0781CCDE9000106A907
:104290000EA8FFF77DFBDDE90F010E9A03910021C7
:1042A000009207F1010A04914DE04FF000400097A1
:1042B000CDE9011006A90EA8FFF76AFBDDE90F02A0
:1042C00003920E9B11990022DDF80CA0009304923A
:1042D00011B9791C00EB010AB7EB0A0004D4C0F154
:1042E000FF3007F1010A0490AAEB0700019044E0B7
:1042F000012F00DA01270021112F01DD112000E03C
:104300003846CDE9000106A90EA8FFF741FBDDE91B
:104310000F010E9A0391002104910092BA462107E1
:104320000CD40399514500DA8A46BAF1010F05DD34
:10433000009AAAF10101515C302908D0B84202DA92
:1043400010F1040F06DA0121CDE9011015E0AAF100
:104350000101E9E7002805DC049901440491AAEB76
:10436000000102E0411C514500DD8A460499401AD3
:10437000401C01904FF000400290200704D40198A7
:10438000504501DBCDF8048000208DF84F000298E5
:104390000DF14F07B0F1004F25D02B200E90029861
:1043A0004FF0020800280CDA404202902D200E90B7
:1043B00007E00A210298FFF70AF83031029007F867
:1043C000011DB8F10001A8F10108F2DC02980028F3
:1043D000EFD1791E0E980870307800F0200040F080
:1043E000450007F8020D12A8C01B00F10708149839
:1043F000007800B1012000EB0A01019801EBE071A7
:1044000005984144401A401E0590E00306D45B46DF
:104410002146179A059800F05DF805441498007835
:1044200018B15A46179990476D1CE00324D55B4696
:104430002146179A059800F04DF805441CE00498B1
:10444000002807DBDDE90301884203DD0098405CBA
:10445000179901E0179930205A469047049805F1C2
:104460000105401C04900198401E019004D12E20AB
:104470005A46179990476D1CBAF10001AAF1010A3A
:10448000DDDC05E017F8010B5A46179990476D1CC3
:10449000B8F10001A8F10108F4DC5B462146179A47
:1044A0000598ABE62D0000002B0000002000000066
:1044B0002DE9F041044600251E461746880404D421
:1044C00005E039462020B0476D1C641EF9D528460A
:1044D000BDE8F0812DE9F041044600251E469046D6
:1044E000C80301D5302700E02027880404D505E063
:1044F00041463846B0476D1C641EF9D52846BDE8D4
:10450000F0810A68531C0B60107070472C4500083E
:104510000000002040000000703900086C450008D1
:1045200040000020D808000080390008000000008A
:1045300000000000FFFFFFFF00000000000000007F
:104540000000000001020304010203040607080939
:104550000204060800A24A04000000000000000057
:0C45600001020304060708090000000027
:04000005080000ED02
:00000001FF
