:020000040800F2
:10000000F0120020790200084B2F0008E92E0008AA
:10001000492F00089B1C00080D5400080000000038
:100020000000000000000000000000004532000851
:100030002D2A0008000000005D300008AD330008E4
:10004000930200089302000893020008930200083C
:10005000930200089302000893020008930200082C
:10006000930200089302000893020008930200081C
:100070008D1E0008B91E0008E11E0008111F0008AF
:10008000391F0008611F000893020008930200084E
:1000900093020008930200089302000893020008EC
:1000A00093020008930200089302000893020008DC
:1000B000F13500089302000893020008930200083B
:1000C00093020008930200089302000893020008BC
:1000D0009302000859480008014A0008894A0008AC
:1000E000930200089302000893020008930200089C
:1000F000930200089302000893020008930200088C
:10010000930200089302000893020008930200087B
:10011000930200089302000893020008930200086B
:10012000930200089302000893020008930200085B
:1001300000F002F800F090F80AA090E8000C824469
:100140008344AAF10107DA4501D100F085F8AFF246
:10015000090EBAE80F0013F0010F18BFFB1A43F0A5
:10016000010318472056000040560000103A24BFF3
:1001700078C878C1FAD8520724BF30C830C144BF0C
:1001800004680C607047000000230024002500264E
:10019000103A28BF78C1FBD8520728BF30C148BFEA
:1001A0000B6070476E2900F04583702900F0B7841A
:1001B000662905F06382652905F06082672905F0EC
:1001C0005D82612905F05C8203681B0A28BF41F04B
:1001D0008001692900F03881642900F03581752992
:1001E00000F032816F2900F04484782900F0838484
:1001F000E92900F0DF83E42900F0DC83F52900F031
:10020000D983EF2900F04184F82900F08284036843
:10021000DB0928BF41F08001632900F04E83732978
:1002200000F05383E32901F05F80F32901F064803B
:10023000002070471FB501F0B5F804000020002130
:1002400005F006FA401C60600020002105F0EAF984
:10025000E0601FBD10B510BD01F076F81146FFF744
:10026000E9FF05F08DF901F04FF903B4FFF7F2FF54
:1002700003BC05F0E7F8000009488047094800473B
:10028000FEE7FEE7FEE7FEE7FEE7FEE7FEE7FEE746
:10029000FEE7FEE704480549054A064B70470000A3
:1002A000C533000831010008F00C0020F0120020D6
:1002B000F00E0020F00E0020704753EA020C00F010
:1002C00069802DE9F04B4FF00006002B1FBFB3FAF9
:1002D00083F503FA05F424FA05F65E4012BF1643CF
:1002E000B2FA82F502FA05F4C5F120051EBF22FA22
:1002F00005FC44EA0C04203556EA044C4FEA144449
:1003000018BF641C4FF000084FF00009904271EBD9
:10031000030C39D3002919BFB1FA81F701FA07F6A6
:10032000B0FA80F700FA07F6C7F120071EBF20FADF
:1003300007FC46EA0C062037B6FBF4FCA7EB0507E2
:10034000103F07F01F0BCBF120060CFA0BFB2CFA29
:1003500006F644BFB3460026202FA4BF5E464FF0EA
:10036000000B5BEA060C08BF4FF0010B19EB0B0901
:10037000ABFB027C48EB0608C01B06FB02CC0BFB68
:1003800003CC71EB0C01C1E70B46024641464846DF
:10039000BDE8F08B13B54FF000004FF00001AFF354
:1003A0000080BDE81C4070477CB51D4616460C0019
:1003B000009001D02044401E074B7B442A466946EA
:1003C0000190304600F04FFA05461CB10020694606
:1003D00000F05CFA28467CBDD90400000FB4044943
:1003E00010B503AA029800F075FA10BC5DF814FB72
:1003F0000000002070B50C460546012A05D028787B
:10040000800600D5EA69002302E0012305E05B1CB9
:10041000934202D2E05C0028F9D1A869E618C01A1C
:10042000A861286A18442862284600F071F904E09F
:10043000D5E9012114F8010B9047B442F8D32846BE
:1004400000F07CF970BD00002DE9F0410646002463
:1004500010687529314616A510D000F080F90028E3
:1004600002DA404213A507E031688A0701D512A5D8
:1004700002E0490704D511A5012401E000F078F954
:1004800000210A2206F1240709E0B0FBF2FCB0FBD0
:10049000F2F302FB1C00303078541846491C002847
:1004A000F3D123462A463046BDE8F04100F069B951
:1004B000000000002D0000002B00000020000000C4
:1004C0002DE9F05F894604464FF0000ADFF874B169
:1004D000FB44C0F820A02046E1688847002874D07B
:1004E000252806D0D4E901219047206A401C2062CB
:1004F000F1E700265F462046E16888472028054648
:1005000007DB312D05D2781910F8200C08B106430D
:10051000F1E7B00701D526F00406C4F81CA00027B7
:10052000C4F818A02A2D09D0284604F084FF38B357
:1005300004EB8708303DC8F8185019E059F8041B3F
:10054000204604EB87029161E1688847012F054648
:1005500018D1E069002820DA26F020061DE0D8F83E
:10056000180000EB800005EB40003038C8F8180098
:100570002046E1688847054604F05DFF0028EED17B
:10058000012F0AD02E2D08D12046E16888477F1C14
:100590000546022F46F02006C4DBA069002803DAD6
:1005A000404246F00106A061F00701D026F0100697
:1005B0006C2D0BD0682D09D04C2D39D06A2D35D03B
:1005C000742D35D07A2D33D016E038E0E1682F460F
:1005D00020468847B842054609D16C2F26D04FF4F3
:1005E0008060E168064320468847054604E06C2F9A
:1005F0001AD04FF4807006430DB3A5F141001928BD
:1006000002D8203546F400664A4629462046266030
:100610004E46FFF7C7FD80B101280BD0F61D26F02E
:10062000070000F1080956E74020E4E78020D8E7FA
:100630000020D6E706F104094DE7284652E7206A74
:10064000BDE8F09FB051000010B5431C02E010F867
:10065000011B71B18107FAD14FF0013202C88C1A27
:100660008C4314EAC211F9D0C01A0A0603D0C01E86
:1006700010BDC01A10BD0A0401D0801E10BD0902B1
:10068000FCD0401E10BD00004FF0013C50F8042B80
:1006900051F8043B9A4221D1A2EB0C03934313EA95
:1006A000CC1317D150F8042B51F8043B9A4215D1C2
:1006B000A2EB0C03934313EACC130BD150F8042B99
:1006C00051F8043B9A4209D1A2EB0C03934313EA7D
:1006D000CC13DBD04FF00000704700BFD01A01BA36
:1006E000B1FA81F101F0180122FA01F0CB40C1F119
:1006F0002001DBB2C0B2C01A2CFA01F3D11A914327
:1007000011EAC311E6D170477047704770477047D0
:1007100070B5044685690068C10601D5302600E041
:100720002026C00707D070BDD4E90121304690478C
:10073000206A401C20626D1EF6D570BD70B504465F
:1007400085690078C00707D170BDD4E90121202058
:100750009047206A401C20626D1EF6D570BD096866
:100760004A0501D540B27047C905FCD500B27047B3
:1007700009684A0501D5C0B27047C905FCD580B2E9
:1007800070472DE9F0470D4699469246044600F120
:1007900024080168880604D5E06921F01001216071
:1007A00000E00120A84201DD471B00E00027A1690D
:1007B0007A1902EB0900081AA0612078C00602D459
:1007C0002046FFF7A5FF002608E0D4E901211AF82A
:1007D00006009047206A401C761C20624E45F4DBE0
:1007E0002078C0060AD52046FFF792FF06E0D4E93C
:1007F000012130209047206A401C2062381EA7F15A
:100800000107F4DC07E0D4E9012118F8050090475E
:10081000206A401C2062281EA5F10105F3DC204659
:10082000FFF78CFF2078000602D50220BDE8F08794
:100830000120FBE711680268006A530501D50870C2
:100840000AE0D30501D5088006E0130603D5C217D8
:10085000C1E9000200E008600120704701694A1CFC
:1008600002610878704700B58FB0CDE901310021F1
:10087000059105497944CDE9031011466846FFF713
:100880001FFE0FB000BD0000E5FFFFFF0A6802F881
:10089000010B0A607047D1E900239A4202D2531C2F
:1008A0000B601070704710B5436913B1AFF300804F
:1008B00001E0FFF79FFD012010BD127800F1240137
:1008C0000A7000224A700122EDE711684FF0FF32F2
:1008D000E9E70000074B70B50D467B44FFF7C3FF07
:1008E0000446284600F00CFD10B14FF0FF3070BDFB
:1008F000204670BD734C00002DE9FF5F15468A4607
:100900000446DFF8AC80F8440027D8E900103E46E2
:10091000CDE9001010E03AF816106A4602A800F07F
:10092000F3FC411C07D02178890603D5E269391808
:1009300091420DD80744761C2078800602D5E069E4
:10094000B84205DDAE42E6DB3AF816000028E2D1F7
:10095000A069C01BA0612046FFF7DAFED8E90010AD
:10096000CDE90010002017E03AF818106A4602A8F6
:1009700000F0CAFCB0F1FF3F81460BD000250DF11D
:10098000080B05E0D4E901211BF8050090476D1C18
:100990004D45F7D308F10100B0428046E4DB206A00
:1009A000384420622046FFF7C9FEBDE8FF9F0000E3
:1009B0008E4D00002DE9F0418046D21D22F0070245
:1009C0000025D2E90002F52915A614D0011E72F106
:1009D000000106DA0023D0EB030063EB020211A64C
:1009E00008E0D8F800108B0701D50FA602E04907F0
:1009F00001D50EA601251146002408F1240704E0C4
:100A000000F098F830323A55641C50EA0102F7D1F0
:100A10002B46324621464046BDE8F041FFF7B1BEC5
:100A2000000000002D0000002B000000200000004E
:100A300030B4002100F1240408E002F00705D208D8
:100A4000303542EA4372DB086554491C52EA03051B
:100A5000F3D10468002310A2250707D5A40600D40B
:100A600021B1C46901230DA2641EC46130BCFFF72B
:100A700088BE10B5044621461068FFF779FE02468D
:100A80002046BDE810400023D2E7D21D22F0070126
:100A9000D1E90023CCE70000000000003000000096
:100AA000F0B40D460188090502D5214C7C4402E0D2
:100AB0001F4C7C440E34002100F1240608E002F0B3
:100AC0000F071209E75D42EA03721B097754491CBC
:100AD00052EA0307F3D102780023120704D5702DE0
:100AE00006D009B1022311342246F0BCFFF749BEFB
:100AF00001231034F8E770B504460D46214610680E
:100B0000FFF736FE024629462046BDE87040002326
:100B1000C6E7D21D22F00703D3E90023C0E703682C
:100B2000126843F0200303600823C3610023B7E782
:100B3000F04B000030B5B0F10A024FEA900E71F1AF
:100B400000034EEA817EB0EB0E0061EB91014FEAAB
:100B5000101E4EEA017E10EB0E0041EB11114FEA20
:100B6000102E4EEA016E10EB0E0041EB11214FEA00
:100B7000104E4EEA014E10EB0E0041EB11414018B1
:100B800041F100014FEAD00040EA41704FEAD10143
:100B900010EB80054FEA810444EA907444EB0104B1
:100BA0006D1944EB0404521BA3414FF0000348BFEE
:100BB0000A3200D530BD401C41F1000130BD704704
:100BC0002DE9FF4F0C461E464FF0FF378BB0D2E9A0
:100BD0000001DDF860800A908A46C1F30A5505B924
:100BE0003D46002108464FF00000BAF1000F00F426
:100BF000400005DA00EB80004FF4400101EA5000AC
:100C00004FEA9059B9F1010F00DDB9460A9850EA50
:100C10004A000ED044F61050A5F2FF3545432F147C
:100C2000B8F1000F1ED07542291E1EDDC9F1000269
:100C30001CE0B8F1010F4FF0000001D0302103E0BB
:100C4000F24305E02154401CB042FBDB3046002259
:100C5000002121540B99C1F80880C1E900200FB090
:100C6000BDE8F08FBD1B6D1CDEE74A4600DA694225
:100C700006A800F0DBFB06AB93E8070003AB83E8B4
:100C8000070050460A9900F04DFC8DE80700A0F5DA
:100C900000501F3800900398002D09DD42F21F011B
:100CA0004A46084403A90390684600F0ACFE08E0F9
:100CB000A0F500504A461F3803A90390684600F08B
:100CC000B6FE8DE807000004000C03D04FF0FF30A3
:100CD000410800E01046B8F1000F03D00022009256
:100CE00015461EE0751E05D4FFF724FF303262550D
:100CF0006D1EF9D5B3460122084302D000227F1CA5
:100D000004E02078302801D100227F1E002A0997B4
:100D100086D01DE0112D07DAFFF70CFF3032625547
:100D20006D1C50EA0102F5D1084302D00098C8B109
:100D30000EE00021681E05E0235C625C63542254CF
:100D4000401E491C8142F7DBAB46A81B401E0990A0
:100D5000002004F80B000B98099AC0F80880C0E93D
:100D6000002B7CE711264FF0000859E72DE9F04FE2
:100D700088460446D21D22F0070191B0D1E9000156
:100D8000CDE90A0104F043FB02460B98C00F01D0E5
:100D90002D2007E02068810701D52B2002E02021CB
:100DA00001EAC000032A099001D0072A05DB0346A7
:100DB0004146204600F0FAFA0BE12078800601D582
:100DC000E06900E00620B8F1650F814606D0B8F171
:100DD000660F18D0B8F1670F70D131E00020B9F17B
:100DE000110F009001DB112301E009F101030AAAB0
:100DF00001A90CA8FFF7E4FEDDE90C70002609F15B
:100E00000105834647E001204B4600904FF0004724
:100E10000AAA01A90CA8FFF7D3FEDDE90DB00C99D1
:100E20005D46002610B909F101000D18B9EB050067
:100E300003D4C0F1FF3609F10105A5EB09002BE051
:100E4000B9F1010F01DA4FF001090020B9F1110FDA
:100E50000090484601DD112300E003460AAA01A9DB
:100E60000CA8FFF7ADFEDDE90C704D460026834669
:100E7000207800070AD4AB4500DA5D4601A8012DB1
:100E800004DD411911F8011C302907D04F4502DA61
:100E900017F1040F04DA012082460FE06D1EEEE721
:100EA000002F02DCED1B3E4403E0781CA84200DD6D
:100EB0007D1CB81B00F1010A4FF0004720780007A5
:100EC00003D4AA4501DB4FF0FF3A0021B7F1004FF0
:100ED0000DF143088DF8431024D002202B23002F5E
:100EE00001DA7F422D230A21021EA0F1010000DC5D
:100EF0005FB197FBF1FC97FBF1F201FB1C7C1746FD
:100F00000CF1300C08F801CDEEE7A8F101000370F8
:100F10002188090501D5452100E06521A0F10108DE
:100F200000F8011C09980FA9A1EB0807FF1D00B1EB
:100F30000120411901EBEA70A1693844081A401EEA
:100F4000A0612078C00602D42046FFF7E1FB099893
:100F500028B1D4E901219047206A401C2062207802
:100F6000C00622D52046FFF7D3FB1EE0002E04DB8F
:100F7000B34502DD01A8805D00E03020D4E9012105
:100F80009047206A401C2062761CAAF101005FEAAB
:100F9000000A0AD100F006FAC0680168405CD4E992
:100FA00001219047206A401C2062281EA5F10105FE
:100FB000DCDC07E0D4E9012118F8010B9047206A36
:100FC000401C2062381EA7F10107F3DC2046FFF722
:100FD000B5FB032011B043E62DE9F04F04460D4662
:100FE000D21D22F0070089B0D0E900974846394663
:100FF00004F00DFA0246F80F01D02D2307E0206817
:10100000810701D52B2302E0202101EAC0038DF8DE
:1010100020300BB1012000E00020032A824601D0DD
:10102000072A04DB2946204600F0C0F93FE120787A
:10103000800601D40D2500E0E569C7F30A560D2DA1
:1010400049DA00214FEA175B08464FF00000002FF5
:1010500000F4400007DA00EB80004FF4400100EBA1
:10106000D07001EA60008115012901DD4FF0FF31E8
:1010700000224FEA850CBCF1180F06D31346ACF1E1
:1010800018004FF08052C24003E04FF4801323FA5F
:101090000CF30CF10C0CBCF1200F04D3ACF1200CC0
:1010A00009FA0CF001E007FA0CF000294FF00048B3
:1010B00001DD18B90FE00ED140450CD319EB020940
:1010C0005F4121B9404502D19F4329EA0209BBEBA8
:1010D000175F00D0761C2088000502D57B48784435
:1010E00002E07A487844193808AA302302F80A3016
:1010F000037C0AF10101002E0AF1020A53546A46E8
:1011000002DC4FF0300101E04FF031014FF00108F7
:101110008DF8001002D0A6F2FF3603E059EA47012D
:1011200000D06B4E002D02DC2178090704D54FF06A
:1011300002082E218DF80110C44600210BE0C7F3F0
:1011400003433F01C35C491C6D1E02F808300529AA
:1011500008F1010801DA002DF1DC00210CE000EBC0
:101160001973491C1B786D1E082902F808304FEAD4
:10117000091908F1010801DA002DF0DC21688B065D
:1011800002D516E0A8F10108E04505DD02EB0803F1
:1011900013F8013C302BF5D0B8F1000F09DD02EB5C
:1011A000080313F8013C2E2B03D1090701D4A8F141
:1011B0000108002D05DD3E2102F808106D1E08F122
:1011C0000108407C002E02F8080008F1010804DA4A
:1011D0002D20764202F8080002E02B2002F80800D9
:1011E0000A214FF47A70864208F101080BDB96FB66
:1011F000F0F3303302F8083096FBF0F308F1010801
:1012000000FB136601E0642E0CDB642096FBF0F318
:10121000303302F8083096FBF0F308F1010800FBC8
:10122000136601E00A2E06DB96FBF1F0303002F87F
:10123000080008F1010896FBF1F001FB1060303066
:1012400002F80800A16908F1010808EB050202EBA9
:101250000A00081AA0612078C00602D42046FFF7D1
:1012600057FA216A08AE01EB0A00206204E0D4E9D3
:10127000012116F8010B9047BAF1010AF7D2207844
:10128000C00602D52046FFF743FA6E4609E016F87D
:10129000010B3E280FD0D4E901219047206A401C61
:1012A0002062B8F10108F2D22046FFF747FA09B0F0
:1012B0000320BDE8F08F206A2844206203E0D4E9CF
:1012C0000121302090476D1EEBD3F8E7F94500006F
:1012D00002FCFFFF10B5436913B1AFF3008001E0DA
:1012E000FFF70AFB012010BD128800F1240182845F
:1012F0000022C2840122EDE711684FF0FF32E9E7D6
:10130000007B00F08000704770B516460C4605461D
:1013100000F040F8036893F80101012806D0FF2C83
:101320000FD8185D68B101202C7070BDD3F807018B
:101330003246214603F2071303442846BDE87040B5
:1013400018474FF0FF3070BD754600F0E7F8AE4625
:1013500005006946534620F00700854618B020B5C1
:10136000FEF798FFBDE820404FF000064FF0000761
:101370004FF000084FF0000B21F00701AC46ACE83D
:10138000C009ACE8C009ACE8C009ACE8C0098D46AA
:101390007047000010B500F005F8001D10BD00BF3B
:1013A000B142000000487047AC0C00202DE9F0412C
:1013B0001F46044603260168072A01F4006004DB87
:1013C00008B116A505E016A503E008B115A500E0D3
:1013D00015A521F010002060A069C01EA0610FB10A
:1013E000401EA0612046FFF793F94FB1D4E90121D7
:1013F00038469047206A401C2062C01C206206E0EC
:10140000206AFAE7D4E9012115F8010B9047761E0E
:10141000F8D22046FFF792F9BDE8F0814E414E0028
:101420006E616E00494E4600696E66002DE9F04718
:10143000814616468AB0334878440DC88DE80D00C1
:1014400030487844801C03AC0DC884E80D0041F698
:101450009B300844372190FBF1F290FBF1F5A5F1A8
:10146000800501FB12041B3C02D56442012000E010
:101470000020DFF890A080460027FA44AAF1BE0AB7
:101480000DE0E00709D03246684607EB47010AEB5A
:10149000810100F0CCFA8DE8070064107F1C002C5D
:1014A000EFD1184F7F44AC3F18E0E80714D007EBAA
:1014B00004100DF1180A90E80E008AE80E00C068CA
:1014C000F04201D198190890324606A903A800F00D
:1014D000AEFA03AB83E807006D10641C002DE4D165
:1014E00032466946B8F1000F03A802D000F08BFA2B
:1014F00001E000F09CFAC9E90001C9F808200AB02F
:10150000BDE8F0873043000010B50446AFF300801B
:101510002046BDE81040FEF7A8BE00000048704716
:101520008C0C00205FEA400C08BF91F0000F4FEADE
:101530008C234FEAC12243EA51514FEA1C5018BF95
:1015400000F5F0404FEA300018BF41F000415FEA7B
:101550006C5C00F02980BCF1FF3F08BF40F0804088
:101560007047130C06BF12044FF0100C4FF0000C24
:10157000130E04BF12020CF1080C130F04BF12016A
:101580000CF1040C930F04BF92000CF1020CD30F6A
:1015900004BF52000CF1010C11464FF00002A0F103
:1015A0001F00A0EB0C00704711F0004F08BF704700
:1015B00031F000413FF4D5AF0B0C06BF09044FF0EA
:1015C000100C4FF0000C0B0E04BF09020CF1080CBC
:1015D0000B0F04BF09010CF1040C8B0F04BF890031
:1015E0000CF1020CCB0F04BF49000CF1010CCCF143
:1015F0002003A0EB0C0022FA03F302FA0CF241EAFA
:10160000030100F10100704720F07F4C80EA0300E5
:1016100023F07F47ACEB070303F57C5300F0004059
:1016200003F1FF032DE980494FEA154B09B44FEA56
:10163000144325EA0B4E24EA03480FF2042606EB76
:10164000132749083E785FEA320203FB0667C7F5B5
:10165000000707FB06F64FEA54374FEAD64606F175
:10166000020607FB066CCCF1005C4FEA1C472CEA33
:10167000074C07FB06F40CFB06F504EB15464FEA96
:10168000961634BF00204FF000404FEAD13706FBDA
:1016900007FC4FEA1C4C0CFB0BF7D21B03FB0CF7AF
:1016A00061EB07010CFB0EF7B0EB074072EB174242
:1016B0000CFB08F734BFA2EB0742B2EB074261EB29
:1016C00017414FEA0C444FEA910706FB07FC4FEA2B
:1016D0001C4C0CFB0BF7B0EBC74072EB573203FB13
:1016E0000CF734BFA2EBC742B2EBC74261EB5731F4
:1016F0000CFB0EF7B0EBC70072EB57720CFB08F750
:1017000034BFA2EBC702B2EBC70261EB5771039F74
:101710004FEA816141EA921104EBCC044FEAD137E0
:101720004FEA826206FB07FC42EA90124FEA8060B1
:101730004FEA1C4C0CFB0BF7D21B03FB0CF761EBC5
:1017400007010CFB0EF7B0EB074072EB17420CFBE6
:1017500008F734BFA2EB0742B2EB074261EB174137
:101760004FEA8C554FEA910704EB9C2406FB07FCDB
:101770004FEA1C4C0CFB0BF7B0EBC74072EB573237
:1017800003FB0CF734BFA2EBC742B2EBC74261EBDD
:1017900057310CFB0EF7B0EBC70072EB57720CFB26
:1017A00008F734BFA2EBC702B2EBC70261EB577177
:1017B00015EB4C254FEA816141EA92114FEA8262B2
:1017C0004FEAD13742EA901206FB07FC44F10004CD
:1017D0004FEA80604FEA1C4C0CFB0BF7D21B03FB5B
:1017E0000CF761EB07010CFB0EF7B0EB074072EB57
:1017F00017420CFB08F734BFA2EB0742B2EB0742DB
:1018000061EB174115EB1C154FEA813141EA92411A
:101810004FEA823242EA90424FEA80304FEA0C7639
:1018200044F1000448EA03434EEA0B484FF0000E2F
:10183000B2EB080C71EB030724BF624639464EEB4E
:101840000E0E4FF0000B0018524149414BEB0B0BB1
:10185000B2EB080C71EB03077BF1000B24BF62466F
:1018600039464EEB0E0E4FF0000B00185241494125
:101870004BEB0B0BB2EB080C71EB03077BF1000B8E
:1018800024BF624639464EEB0E0E51EA020718BFDE
:1018900046F0010616EB0E7655F1000254F10001F8
:1018A00003D5BDE88901BDE80088BDE88901BDE830
:1018B0000048B619524141EB0101A3F10103704701
:1018C00080807F7E7D7C7B7A79787776767574737D
:1018D000727171706F6E6E6D6C6C6B6A6A6968683C
:1018E000676666656464636362616160605F5F5ED2
:1018F0005E5D5D5C5C5B5B5A5A5959585857575648
:1019000056555555545453535252525151505050AC
:101910004F4F4F4E4E4D4D4D4C4C4C4B4B4B4A4AFE
:101920004A49494948484847474747464646454542
:10193000454444444443434343424242424141417B
:10194000002B26D4770021D01CB54FEA370703B40B
:101950004FF010004FF010014FF000000FBCBDE839
:1019600010400BF1010BBBF1010F08BF5FEA170735
:1019700022BF12F1010211F101014FF0004143F1C8
:10198000000300F0004043EA00007047F9D3570815
:10199000DAE746EA064613F1400F4FEA16461FDD26
:1019A00013F1200FDFBF16430A46002120335B42AC
:1019B000C8D0C3F1200746EA064602FA07F74FEA05
:1019C000164646EA0706C3F1200722FA03F201FA97
:1019D00007F721FA03F14FF0000342EA0702B1E7EB
:1019E00046EA020646EA06464FEA164646EA010677
:1019F000BCBF46EA0646360C4FF000034FF000022B
:101A00004FF000019EE72DE9C048934630B491E8BD
:101A1000380007C831EA400C48BF34EA430C03D50C
:101A2000FFF7F2FDFFF78CFFF0BCBDE800882DE961
:101A3000C048934630B491E8380007C810F0804F92
:101A400008BF13F0804F03D100F005F8FFF778FFCF
:101A5000F0BCBDE8008820F07F4780EA030023F057
:101A60007F4C07EB0C03A3F57C5300F00040A3F17F
:101A7000FE0392F0000F00F0B38095F0000F00F02D
:101A800077802DE901494FEA11404FEA144621EAD7
:101A9000004800FB06FC24EA064708FB06F607FBA5
:101AA00008F800FB07F718EB06484CEB164C4FEA1A
:101AB000124B18EB07484FEA15464CEB174022EA49
:101AC0000B4E0BFB06FC25EA06470EFB06F607FB52
:101AD0000EFE0BFB07F71EEB064E4CEB164C4FF0C1
:101AE00000061EEB074E4CEB174B18EB0B0840F1B2
:101AF000000018EB0E0B58EB000840F100008F1AA5
:101B00004FF000013CBFC943661B14BFB5EB040C8A
:101B100000213CBFC943F61B4FEA17444EEA8E0E24
:101B200027EA04454FEA1C4704FB07622CEA074CEE
:101B300005FB07F70CFB05F604FB0CFC16EB074650
:101B400042EB174216EB0C4642EB1C421BEB06061F
:101B500058EB0202414146EA9E0601D5BDE80189E3
:101B6000B619524141EB0101A3F10103BDE801891E
:101B70004FEA14454FEA114724EA054621EA074C8B
:101B800005FB07F406FB07F70CFB06F105FB0CFC55
:101B900011EB074144EB17444FEA124711EB0C419C
:101BA00044EB1C4422EA074C05FB07F206FB07F74F
:101BB0000CFB06F605FB0CFC16EB074642EB174246
:101BC00016EB0C4642EB1C456A1854F1000148BF65
:101BD0007047B619524141EB0101A3F1010370476F
:101BE00095F0000F37D04FEA11424FEA144721EA2F
:101BF000024624EA074C02FB07F106FB07F70CFB41
:101C000006F402FB0CFC14EB074441EB17414FEACE
:101C1000154714EB0C4441EB1C4125EA074C02FB31
:101C200007F506FB07F70CFB06F602FB0CFC16EBB0
:101C3000074645EB174516EB0C4645EB1C421219BF
:101C400051F1000148BF7047B619524141EB010103
:101C5000A3F1010370474FEA14454FEA114724EA04
:101C6000054621EA074C05FB07F106FB07F70CFBCD
:101C700006F24FF0000605FB0CFC12EB074241EBAD
:101C8000174112EB0C4251EB1C4148BF70479218B0
:101C900041EB0101A3F101037047FEE770B5044673
:101CA000406880470146E07810F0070F02D0228894
:101CB000521C2280B1EBD01F04BF20F03800E0702E
:101CC0000FD04FF0005202EBB0104FEAB060C0F3FB
:101CD000C202E070032A04D361F3C71020F0380079
:101CE000E070C0B200F007010025062928BF70BDD2
:101CF000DFE801F0031F47897A9DC0F38011B1EB43
:101D0000D01FA07820F0F0001EBF8030A07070BD02
:101D1000A070A16800291CBF204688472580A078B4
:101D200020F00F00401CA070E07820F00700401C5D
:101D300059E0C0F38011B1EBD01F0FD0A07820F094
:101D4000F0001030A070E16800291CBF20468847D1
:101D50002580E07820F00700801C44E02088C82817
:101D600098BF70BDA07820F0F0005030A070E169FD
:101D700000291CBF20468847E07820F00700401D5E
:101D800031E0C0F38011B1EBD01F16D1A07820F064
:101D9000F000A070A16800291CBF20468847A078E9
:101DA0004FF0805101EB30104FEA3070A070258069
:101DB000E07820F00700C01C15E020883C2898BF80
:101DC00070BDA07800F00F0101290ED0022920F08B
:101DD000F00012D02030A070216909B12046884758
:101DE000E07820F00700E07070BD20F0F0003030A7
:101DF000A07061690029F1D1F2E74030A070A169BB
:101E00000029EBD1ECE7C0F38011B1EBD01F08BF84
:101E100070BDA07820F0F0001030A070E1680029BB
:101E20001CBF2046884720883C28D9D290E7C0F3C1
:101E30008011B1EBD01FA07820F0F00009D1603004
:101E4000A070216A002908BF70BD2046BDE870401F
:101E500008471030A070E16800291CBF2046884761
:101E6000E07820F00700E07070BD0000064810B573
:101E70004468002C08BF10BD2046FFF70FFF646ABE
:101E8000002CF9D110BD00005C00002010B520200E
:101E900000F03CFA002808BF10BD202000F086F8B2
:101EA0000021034800F0B0F802490020087010BD7E
:101EB0001C0002402000002010B54FF4007000F01C
:101EC00025FA002808BF10BD4FF4007000F06EF82E
:101ED000BDE810400021014800F096B830000240F3
:101EE00010B54FF4005000F011FA002808BF10BDE3
:101EF0004FF4005000F05AF80021034800F084F835
:101F000002490020087010BD440002401800002063
:101F100010B54FF4003000F0F9F9002808BF10BDEB
:101F20004FF4003000F042F8BDE8104000210148B5
:101F300000F06AB85800024010B54FF4001000F0ED
:101F4000E5F9002808BF10BD4FF4001000F02EF88E
:101F5000BDE810400021014800F056B86C00024076
:101F600070B54FF0007000F0D1F9002808BF70BDC7
:101F70004FF0007000F01AF80021084800F044F813
:101F8000074800240470074D4021284602F008FF4E
:101F90000028F9D00448C0F8984170BD8000024084
:101FA0001C000020004400400000244210B50446FC
:101FB00010F0704F1CBF0848044200D124B940F211
:101FC0000E2106A003F040FA14F0805F19BF0C4800
:101FD00004600C48446010BD0000F0EF73746D3372
:101FE00032663130335C6C69627261726965735C50
:101FF00073746D3332663130785F646D612E6300C7
:10200000040402400000024070B504461D480D461D
:1020100084421CBF1C48844222D01C4884421CBFFE
:102020001B4884421CD01B4884421CBF1A4884426F
:1020300016D01A4884421CBF1948844210D019484F
:1020400084421CBF184884420AD0184884421CBFEE
:102050001748844204D040F2291116A003F0F4F985
:1020600055B1012D04D04FF4957112A003F0ECF995
:10207000206840F0010003E020684FF6FE71084040
:10208000206070BD080002401C0002403000024089
:1020900044000240580002406C00024080000240B0
:1020A000080402401C040240300402404404024080
:1020B0005804024073746D3332663130335C6C699E
:1020C000627261726965735C73746D33326631304C
:1020D000785F646D612E63002DE9F05F494D4A4ED3
:1020E0004A4FDFF82C81DFF82C91DFF82CA1DFF8C4
:1020F0002CB10446A84218BFB4421DD0BC4218BF40
:10210000444519D04C4518BF544515D05C451CBFFB
:102110004348844210D0434884421CBF4248844212
:102120000AD0424884421CBF4148844204D04FF048
:102130006F0140A003F088F920684FF6FE71084057
:102140002060002020606060A060E0604248AC42F7
:1021500004BF416841F00F011DD0B44204BF416883
:1021600041F0F00117D0BC4204BF416841F47061F6
:1021700011D0444504BF416841F470410BD04C4537
:1021800004BF416841F4702105D0544504BF416843
:1021900041F4700102D14160BDE8F09F5C4505D17A
:1021A000416841F070614160BDE8F09F1C49081F23
:1021B0008C4204BF016841F00F0114D019498C42D0
:1021C00004BF016841F0F0010DD017498C4204BFF3
:1021D000016841F4706106D014498C4204BF016863
:1021E00041F4704102D10160BDE8F09F10498C427A
:1021F00018BFBDE8F09F016841F470210160BDE89F
:10220000F09F0000080002401C0002403000024025
:1022100044000240580002406C000240800002402E
:10222000080402401C0402403004024044040240FE
:102230005804024073746D3332663130335C6C691C
:10224000627261726965735C73746D3332663130CA
:10225000785F646D612E63000000024010B5044693
:10226000154884421CBF1548844222D01448844239
:102270001CBF144884421CD0134884421CBF13481E
:10228000844216D0124884421CBF1248844210D0A7
:10229000114884421CBF114884420AD0104884422D
:1022A0001CBF1048844204D04FF4BB710EA003F051
:1022B000CBF8606880B210BD080002401C000240EC
:1022C0003000024044000240580002406C000240CE
:1022D00080000240080402401C0402403004024016
:1022E000440402405804024073746D333266313046
:1022F000335C6C69627261726965735C73746D33AF
:1023000032663130785F646D612E630070B50025F0
:102310000446012818BF022C7DD0042C18BF082CBD
:1023200079D0102C18BF202C75D0402C18BF802CD1
:1023300071D0B4F5807F18BFB4F5007F6BD0B4F5D1
:10234000806F18BFB4F5006F65D0B4F5805F18BF1B
:10235000B4F5005F5FD0B4F5804F18BFB4F5004FFF
:1023600059D0B4F5803F18BFB4F5003F53D0B4F551
:10237000802F18BFB4F5002F7DD0B4F5801F18BF93
:10238000B4F5001F77D0B4F5800F18BFB4F5000F77
:1023900071D0B4F1807F18BFB4F1007F6BD0B4F17D
:1023A000806F18BFB4F1006F65D06FF08050C442E9
:1023B0001CBFA4F18050B0F102005CD0A4F18050A9
:1023C000001F1CBFA4F18050B0F1080053D0A4F14D
:1023D000805010381CBFA4F18050B0F120004AD0CA
:1023E000A4F1805040381CBFA4F18050B0F18000AF
:1023F00041D0A4F18050B0F580701CBFA4F1805092
:10240000B0F5007037D0A4F18050B0F5806018BFEF
:10241000A4F1805000E02EE018BFB0F500602AD093
:10242000B4F1102F1CBFA4F18050B0F5005022D0A1
:10243000A4F18050B0F580401CBFA4F18050B0F5ED
:10244000004018D0A4F18050B0F580301CBFA4F13A
:102450008050B0F500300ED0A4F18050B0F580204F
:102460001CBFA4F18050B0F5002004D040F25921E7
:1024700006A002F0E9FF14F0805F14BF0C480D487D
:102480000068204218BF0125284670BD73746D3363
:1024900032663130335C6C69627261726965735C9B
:1024A00073746D3332663130785F646D612E630012
:1024B000000402400000024070B504462148164660
:1024C0000D4684421CBF2048844222D01F488442CB
:1024D0001CBF1F4884421CD01E4884421CBF1E489B
:1024E000844216D01D4884421CBF1D48844210D02F
:1024F0001C4884421CBF1C4884420AD01B488442AA
:102500001CBF1B48844204D040F2491119A002F0BC
:102510009BFF35F00E0000D125B94FF4A57115A031
:1025200002F092FF002E04BF2068A84308D0012EBD
:1025300004D040F24B110FA002F086FF2068284320
:10254000206070BD080002401C00024030000240C4
:1025500044000240580002406C00024080000240EB
:10256000080402401C0402403004024044040240BB
:102570005804024073746D3332663130335C6C69D9
:10258000627261726965735C73746D333266313087
:10259000785F646D612E630070B5054656480C4641
:1025A00085421CBF5548854222D0554885421CBFF4
:1025B000544885421CD0544885421CBF534885422C
:1025C00016D0534885421CBF5248854210D052480D
:1025D00085421CBF514885420AD0514885421CBFE4
:1025E0005048854204D04FF0CF014FA002F02CFF9D
:1025F000A068102818BF002804D04FF0D0014AA0CE
:1026000002F022FFE0684FF6FF71401E884203D3BC
:10261000D12145A002F018FF2069402818BF0028EA
:1026200004D04FF0D20140A002F00EFF6069802874
:1026300018BF002804D04FF0D3013BA002F004FFE4
:10264000A06900281CBFB0F5807FB0F5007F04D0E2
:102650004FF0D40134A002F0F7FEE06900281CBF5F
:10266000B0F5806FB0F5006F04D04FF0D5012EA00B
:1026700002F0EAFE206A202818BF002804D04FF09C
:10268000D60129A002F0E0FE606AB0F5405F18BFF5
:10269000B0F5005F09D0B0F5805F18BF002804D006
:1026A0004FF0D70120A002F0CFFEA06AB0F5804F16
:1026B00018BF002804D04FF0D8011BA002F0C4FEC0
:1026C0002868226AA1686FF30E101143D4E904232D
:1026D0001A431143A2691143E2691143626A11432B
:1026E000A26A114308432860E06868602068A86017
:1026F0006068E86070BD0000080002401C000240F5
:102700003000024044000240580002406C00024089
:1027100080000240080402401C04024030040240D1
:10272000440402405804024073746D333266313001
:10273000335C6C69627261726965735C73746D336A
:1027400032663130785F646D612E630070B5044687
:1027500015480D4684421CBF1448844222D01448B8
:1027600084421CBF134884421CD0134884421CBFBF
:102770001248844216D0124884421CBF1148844239
:1027800010D0114884421CBF104884420AD010481F
:1027900084421CBF0F48844204D04FF4B2710EA093
:1027A00002F052FE656070BD080002401C0002404D
:1027B0003000024044000240580002406C000240D9
:1027C00080000240080402401C0402403004024021
:1027D000440402405804024073746D333266313051
:1027E000335C6C69627261726965735C73746D33BA
:1027F00032663130785F646D612E63002DE9F047F9
:1028000001218CB0084600F02BFC3D4D00212846EC
:10281000FFF7FAFB2846FFF75FFC3B48394ECDE94E
:102820000060102002904FF416700024CDE90304DC
:102830008027CDE905744FF44058CDE90848079446
:10284000694628460A94FFF7A7FE7014FFF7AEFB0F
:1028500000212846FFF7D8FB012202212846FFF776
:102860002BFE0E208DF82C0001258DF82D508DF8B3
:102870002E408DF82F500BA800F068FBA6F104093C
:1028800001228021484602F03DFADFF880A00021B5
:102890005046FFF7B9FB5046FFF71EFC1C48009658
:1028A000CDE901044FF4C870CDE90304CDE9057406
:1028B000CDE908480794694650460A94FFF76CFE34
:1028C0006804FFF773FB01215046FFF79DFB0122CF
:1028D00002215046FFF7F0FD0F208DF82C008DF8F7
:1028E0002D508DF82E408DF82F500BA800F02EFBA8
:1028F00001224021484602F005FA0CB0BDE8F087FD
:102900004400024004380140980000205800024072
:10291000F00200202DE9F04701218CB0084600F0BC
:102920009FFB3D4D00212846FFF76EFB2846FFF731
:10293000D3FB3B48394ECDE90060102002904FF4A4
:1029400016700024CDE903048027CDE905744FF407
:102950004058CDE908480794694628460A94FFF78D
:102960001BFE2020FFF722FB00212846FFF74CFB2F
:10297000012202212846FFF79FFD0C208DF82C0034
:1029800001258DF82D508DF82E408DF82F500BA875
:1029900000F0DCFAA6F1040901228021484602F089
:1029A000B1F9DFF880A000215046FFF72DFB50461B
:1029B000FFF792FB1C480096CDE901044FF4C87064
:1029C000CDE90304CDE90574CDE9084807946946CB
:1029D00050460A94FFF7E0FD6802FFF7E7FA01218D
:1029E0005046FFF711FB012202215046FFF764FD1C
:1029F0000D208DF82C008DF82D508DF82E408DF87F
:102A00002F500BA800F0A2FA01224021484602F004
:102A100079F90CB0BDE8F0871C0002400448004082
:102A20006808002030000240C00A00207047000003
:102A30002DE9F04104460026A0F180400D46B0F596
:102A400084301CBFA4F18040B0F586301BD0A4F1C7
:102A50008040B0F588301CBFA4F18040B0F58A30CA
:102A600011D0A4F18040B0F58C301FBFA4F180409C
:102A7000B0F58E30A4F18040B0F5903003D0B22193
:102A80003DA002F0E1FCE878002818BF042810D02F
:102A9000282818BF48280CD0142818BF102808D0A0
:102AA0001C2818BF182804D04FF0B30132A002F040
:102AB000CBFC288818B9B4212FA002F0C5FCE87817
:102AC00000F00F0710F0100F0CD0A87801281CBFE1
:102AD0000228032804D04FF0BB0127A002F0B4FC69
:102AE000A878074328784FF00F0C10F0FF0F4FF035
:102AF000010318BF21681AD02A8803FA06F002EAF7
:102B0000000282420FD1B2000CFA02F821EA080159
:102B100007FA02F21143EA78282A08BF606102D05E
:102B2000482A08BF2061761C082EE5D3216028883A
:102B3000FF2886BF62680020BDE8F08100F108012F
:102B40002E8803FA01F10E408E420FD186000CFA56
:102B500006F822EA080207FA06F63243EE78282E33
:102B600008BF6161EE78482E08BF2161401C08282B
:102B7000E4D36260BDE8F08173746D333266313046
:102B8000335C6C69627261726965735C73746D3316
:102B900032663130785F6770696F2E630000000025
:102BA00070B50D460446012818BF022C7ED0042CB7
:102BB00018BF082C7AD0A4F5A01010381CBFA4F5BB
:102BC000A010B0F1300071D0A4F5B01040381CBF97
:102BD000A4F5B010B0F1C00068D0A4F5C010B0F5F5
:102BE00080701CBFA4F5C010B0F500705ED0A4F5D5
:102BF000C010B0F540701CBFA4F5C010B0F5023095
:102C00007CD0A4F5C010B0F5033018BFB4F5805FD8
:102C100074D0B4F5EA1F18BFB4F5EB1F6ED0B4F54D
:102C2000004F1CBF6FF40010C44267D0A4F5001021
:102C3000801E1CBFA4F50010B0F104005ED0A4F506
:102C4000001008381CBFA4F50010B0F1100055D0DA
:102C5000B4F1201F1CBFA4F50010B0F140004DD00E
:102C6000A4F54010B0F580701CBFA4F54010B0F57D
:102C7000007043D0A4F54010B0F580601CBFA4F5EF
:102C80000010B0F5885039D0A4F50010B0F5005010
:102C900018BFB4F5011F31D06FF00040C4421CBF13
:102CA000334884422AD03348844200E026E01CBFE7
:102CB0003148844222D0314884421CBF304884428B
:102CC0001CD0304884421CBF2F48844216D02F4865
:102CD00084421CBF2E48844210D02E4884421CBF20
:102CE0002D4884420AD02D4884421CBF2C4884427F
:102CF00004D040F22A212BA002F0A6FB002D18BF21
:102D0000012D04D040F22B2126A002F09DFB2F487C
:102D100014F0004F14BFC2694268C4F303434FF478
:102D2000401131EA040C4FEA54514FEA0111A6B2A6
:102D300006FA01F114D014F4801F08BF8A4304D0AE
:102D40004FF0030C0CFA03F39A4342F07062002D2B
:102D500018BF0A4314F0004F14BFC261426070BD37
:102D6000436822F0706223F070634360EFE7000075
:102D70000200008004000080080000801000008035
:102D80002000008040000080800000800001008062
:102D90000002008000040080000800800010008015
:102DA0000020008073746D3332663130335C6C699F
:102DB000627261726965735C73746D33326631304F
:102DC000785F6770696F2E630000000000000140AB
:102DD00070B50446A0F180400D46B0F584301CBFAC
:102DE000A4F18040B0F586301CD0A4F18040B0F54D
:102DF00088301CBFA4F18040B0F58A3012D0A4F115
:102E00008040B0F58C301FBFA4F18040B0F58E300B
:102E1000A4F18040B0F5903004D040F2791105A0C3
:102E200002F012FB25B94FF4BD7102A002F00CFBB9
:102E3000656170BD73746D3332663130335C6C69BB
:102E4000627261726965735C73746D3332663130BE
:102E5000785F6770696F2E630000000070B50446EC
:102E6000A0F180400D46B0F584301CBFA4F1804035
:102E7000B0F586301CD0A4F18040B0F588301CBF7E
:102E8000A4F18040B0F58A3012D0A4F18040B0F5B2
:102E90008C301FBFA4F18040B0F58E30A4F180408B
:102EA000B0F5903004D040F2691105A002F0CCFAE0
:102EB00025B94FF4B57102A002F0C6FA256170BDC4
:102EC00073746D3332663130335C6C696272617277
:102ED0006965735C73746D3332663130785F677027
:102EE000696F2E6300000000FEE700001449CA78F5
:102EF000002A1CBFC87870470122002818BF8A70BA
:102F00004B78104813B1012B0ED016E08B782BB103
:102F1000D0F82031002B08BF4A700ED0D0F8200125
:102F2000012808BF8A7008E000228A704A70D0F831
:102F30002001002804BF01207047002070470000D6
:102F40005700002000002142FEE7704770B504469C
:102F5000C0780F25002818BF012804D04FF0750154
:102F600020A002F071FA6078102803D376211DA00A
:102F700002F06AFAA078102803D3772119A002F092
:102F800063FAE078012108B31D480068637800F413
:102F9000E060C0F5E060000AC0F1040203FA02F24A
:102FA000A37825FA00F0184010432278000102F1BE
:102FB000E02282F80004207800F01F0291404009CE
:102FC000800000F1E020C0F8001170BD207800F012
:102FD0001F0291404009800000F1E020C0F88011FC
:102FE00070BD000073746D3332663130335C6C69D0
:102FF000627261726965735C6D6973632E63000050
:103000000CED00E010B50446B0F5E06F18BFB4F564
:10301000C06F0CD0B4F5A06F1CBFB4F5806FB4F5D1
:10302000407F04D04FF0630104A002F00DFA0A497A
:1030300044F0FD7040F08060086010BD73746D3323
:1030400032663130335C6C69627261726965735CDF
:103050006D6973632E6300000CED00E070470000A3
:1030600070B5054620F057000E4630F4A06000D140
:1030700025B940F22B410AA002F0E6F9114C002ECE
:1030800004BF6069A84308D0012E04D040F22C414F
:1030900003A002F0D9F960692843606170BD0000A7
:1030A00073746D3332663130335C6C696272617295
:1030B0006965735C73746D3332663130785F726347
:1030C000632E63000010024070B505460D480E46A1
:1030D000054200D125B940F269410BA002F0B4F9D4
:1030E000124C002E04BFE069A84308D0012E04D082
:1030F00040F26A4104A002F0A7F9E0692843E061C8
:1031000070BD00000036018173746D33326631305A
:10311000335C6C69627261726965735C73746D3380
:1031200032663130785F7263632E630000100240B4
:1031300070B505460D480E46054200D125B940F24E
:103140004A410BA002F080F9124C002E04BFA06986
:10315000A84308D0012E04D040F24B4104A002F055
:1031600073F9A0692843A06170BD00000200C0FF90
:1031700073746D3332663130335C6C6962726172C4
:103180006965735C73746D3332663130785F726376
:10319000632E630000100240254910B44A6812F003
:1031A0000C03244A18BF042B01D0082B01D0026065
:1031B00015E04A684B6802F470124FF0020C13F4E9
:1031C000803F0CEB924203D04B6813F4003F03D0D6
:1031D000194B5A43026002E0164B5A4302604A6898
:1031E0000F2303EA1212154B9A5CD0F800C02CFA98
:1031F00002F24260D1F804C0072404EA1C2C13F840
:103200000CC022FA0CFCC0F808C0D1F804C004EAD3
:10321000DC2C13F80C30DA40C2604968032303EA5F
:103220009131074B595CB2FBF1F1016110BC704761
:103230000010024000127A0000093D003C0000200E
:1032400038000020704700002DE9F04700251C4C95
:103250001C4E0227A8464FF0010900BF05EB4500B0
:1032600014F8301039B101290BD0022918D02946A1
:1032700015A0FDF7B3F8681C85B2022DEED3BDE8AA
:10328000F0873268716804EBC0014B689A42F2D350
:1032900004F83070D1E903208B8A19469047EAE799
:1032A00004EBC0014A78002A08BF04F83080E2D05D
:1032B000326873688B681A444A6004F83090DAE721
:1032C000500C00201000002074696D65725B25644D
:1032D0005D207374617465206572726F72210D0ACE
:1032E0000000000010B54FF0E024042804BF20695E
:1032F00040F0040009D010F1050F03D0CA2104A04A
:1033000002F0A2F8206920F00400206110BD000046
:1033100073746D3332663130335C6C696272617222
:103320006965735C6D6973632E63000010B51A4C98
:103330001422002320686168FCF7BFFF52EA0300F3
:1033400008D116480078012804D10020FFF7CEFDEF
:10335000134908700522206800236168FCF7ADFF5F
:1033600052EA030005D10F480078012808BFFEF794
:103370007DFD0A22206800236168FCF79EFF52EA67
:10338000030018BF10BD08480078012818BF10BD01
:10339000BDE81040FFF758BF100000205700002084
:1033A0005A0000205C0000204C0000200448826885
:1033B000C168521C41F100018260C160FFF7B6BFD5
:1033C00008000020374882B0016841F00101016027
:1033D0004168354A11404160016821F4102121F013
:1033E00080710160016821F480210160416821F44D
:1033F000FE0141604FF41F018160002201920092A2
:10340000016841F480310160016801F400310091EC
:103410000199491C0191009919B90199B1F5A06F61
:10342000F2D1016811F4003F08BF009233D00121AE
:1034300000911E490A6842F010020A600A6822F0F0
:1034400003020A600A6842F002020A6041684160B1
:1034500041684160416841F480614160416821F404
:103460007C114160416841F4E8114160016841F01C
:1034700080710160016811F0007FFBD0416821F08C
:1034800003014160416841F002014160416801F07F
:103490000C010829FAD106494FF00060086002B01B
:1034A00070470000001002400000FFF800200240BA
:1034B00008ED00E070B4B0F820C02CF0100CA0F8BB
:1034C00020C0068BB0F820C04FF6FF7426F4734678
:1034D00004EA0333334304EA02221A43A0F180438F
:1034E00004EA0115B3F596331CBFA0F18043B3F590
:1034F0009A3314D0B0F1804F1CBFA0F18043B3F5D4
:1035000080630CD0A0F18043B3F500631FBFA0F12E
:103510008043B3F540632CF0A003194302D12CF093
:103520002001294341F010010283018470BC7047DF
:1035300070B50C460546012184B00846FFF7C4FD6E
:1035400001210420FFF7F4FD0F20ADF80C00282026
:10355000254E8DF80F0003A93046FFF769FA0F21B9
:103560003046FFF735FCADF804500025ADF80040BB
:10357000ADF80650ADF802506946F00401F0A4F829
:103580001A4C0126214625806580A680E58025818C
:10359000B00700F0B1FB042020806580A680E580A4
:1035A00025812146000700F0A7FB082020806580C8
:1035B000A680E58025812146C00600F09DFB0C20F9
:1035C00020806580A680E58025812146B00700F037
:1035D00093FB01221E21900700F07CFD012188074A
:1035E00000F066F904B070BD00080140800C0020B6
:1035F0002DE9F041714C4FF6FF764FF47A77207841
:103600004FF0000510F0800F31D10221480700F083
:10361000E7FA00282BD00221480700F0D1F82078E3
:1036200010F0400F4FF0804016D000F0BFF9E0805E
:10363000A188814294BF65626662401A616A08444B
:10364000AD214843B0FBF7F06061257000214FF0D9
:10365000804000F0C5FD0AE000F0A8F9A0802078C5
:10366000022140F040002070480700F0B9FD60786A
:1036700010F0800F30D10421080700F0B1FAF8B142
:103680000421080700F09CF8607810F0400F4FF01C
:10369000804016D000F0EEF960812189814294BF0C
:1036A000A562A662401AA16A0844AD214843B0FB56
:1036B000F7F0A061657000214FF0804000F002FE3D
:1036C0000AE000F0D7F920816078022140F0400044
:1036D0006070480700F0F6FDA07810F0800F30D140
:1036E0000821C80600F07CFAF8B10821C80600F0ED
:1036F00067F8A07810F0400F4FF0804016D000F02F
:10370000FFF9E081A189814294BFE562E662401A37
:10371000E16A0844AD214843B0FBF7F0E061A570D1
:1037200000214FF0804000F025FE0AE000F0E8F9AB
:10373000A081A078022140F04000A070480700F06E
:1037400019FEE07810F0800F18BFBDE8F08110215D
:10375000880600F045FA002808BFBDE8F081102176
:10376000880600F02DF8E07810F0400F4FF0804010
:1037700017D000F0FDF96082218A814294BF256351
:103780002663401A216B0844AD214843B0FBF7F093
:103790002062E570BDE8F04100214FF0804000F06C
:1037A00033BE00F0E5F92082E078022140F04000CD
:1037B000E070BDE8F041480700F026BE640000203C
:1037C00070B50446A0F180400D46B0F5963018BFA4
:1037D000B4F1804F4ED0A4F18040B0F580601CBFA2
:1037E000A4F18040B0F5006044D0A4F18040B0F571
:1037F00040601CBFA4F18040B0F580503AD0A4F1E5
:103800008040B0F5A0501CBFA4F18040B0F59A30C4
:1038100030D0A4F18040B0F5A6301CBFA4F18040A8
:10382000B0F5A83026D0A4F18040B0F5AA301CBF76
:10383000A4F18040B0F5C0501CD0A4F18040B0F598
:10384000E0501CBFA4F18040B0F5005012D0A4F1AC
:103850008040B0F5A0301FBFA4F18040B0F5A23089
:10386000A4F18040B0F5A43004D040F6772107A041
:1038700001F0EAFD15F47F4F00D125B940F678211B
:1038800002A001F0E1FDE843208270BD73746D3346
:1038900032663130335C6C69627261726965735C87
:1038A00073746D3332663130785F74696D2E6300E6
:1038B00070B50446A0F180400D46B0F5963018BFB3
:1038C000B4F1804F4ED0A4F18040B0F580601CBFB1
:1038D000A4F18040B0F5006044D0A4F18040B0F580
:1038E00040601CBFA4F18040B0F580503AD0A4F1F4
:1038F0008040B0F5A0501CBFA4F18040B0F59A30D4
:1039000030D0A4F18040B0F5A6301CBFA4F18040B7
:10391000B0F5A83026D0A4F18040B0F5AA301CBF85
:10392000A4F18040B0F5C0501CD0A4F18040B0F5A7
:10393000E0501CBFA4F18040B0F5005012D0A4F1BB
:103940008040B0F5A0301FBFA4F18040B0F5A23098
:10395000A4F18040B0F5A43004D040F229310AA08F
:1039600001F072FD002D04BF208820F0010009D075
:10397000012D04D040F22A3103A001F065FD20881A
:1039800040F00100208070BD73746D3332663130B9
:10399000335C6C69627261726965735C73746D33F8
:1039A00032663130785F74696D2E630010B504465D
:1039B000A0F18040B0F5963018BFB4F1804F44D0EC
:1039C000A4F18040B0F580601CBFA4F18040B0F548
:1039D00000603AD0A4F18040B0F540601CBFA4F173
:1039E0008040B0F59A3030D0A4F18040B0F5A630D8
:1039F0001CBFA4F18040B0F5A83026D0A4F18040CF
:103A0000B0F5AA301CBFA4F18040B0F5C0501CD066
:103A1000A4F18040B0F5E0501CBFA4F18040B0F5A7
:103A2000005012D0A4F18040B0F5A0301FBFA4F127
:103A30008040B0F5A230A4F18040B0F5A43004D0AD
:103A400040F69C1102A001F0FFFCA08E10BD00000A
:103A500073746D3332663130335C6C6962726172DB
:103A60006965735C73746D3332663130785F746985
:103A70006D2E630010B50446A0F18040B0F596307D
:103A800018BFB4F1804F26D0A4F18040B0F580601B
:103A90001CBFA4F18040B0F500601CD0A4F18040B0
:103AA000B0F540601CBFA4F18040B0F59A3012D050
:103AB000A4F18040B0F5A6301FBFA4F18040B0F55E
:103AC000C050A4F18040B0F5A03004D040F6A91158
:103AD00002A001F0B9FC208F10BD000073746D339B
:103AE00032663130335C6C69627261726965735C35
:103AF00073746D3332663130785F74696D2E630094
:103B000010B50446A0F18040B0F5963018BFB4F16E
:103B1000804F18D0A4F18040B0F580601CBFA4F1A4
:103B20008040B0F500600ED0A4F18040B0F5406058
:103B30001CBFA4F18040B0F59A3004D040F6B61115
:103B400002A001F081FCA08F10BD000073746D33E2
:103B500032663130335C6C69627261726965735CC4
:103B600073746D3332663130785F74696D2E630023
:103B700010B50446A0F18040B0F5963018BFB4F1FE
:103B8000804F18D0A4F18040B0F580601CBFA4F134
:103B90008040B0F500600ED0A4F18040B0F54060E8
:103BA0001CBFA4F18040B0F59A3004D040F6C31198
:103BB00002A001F049FCB4F8400010BD73746D33ED
:103BC00032663130335C6C69627261726965735C54
:103BD00073746D3332663130785F74696D2E6300B3
:103BE00070B504460026A0F180400D46B0F5963031
:103BF00018BFB4F1804F4ED0A4F18040B0F5806082
:103C00001CBFA4F18040B0F5006044D0A4F1804016
:103C1000B0F540601CBFA4F18040B0F580503AD0B0
:103C2000A4F18040B0F5A0501CBFA4F18040B0F5D5
:103C30009A3030D0A4F18040B0F5A6301CBFA4F17A
:103C40008040B0F5A83026D0A4F18040B0F5AA306D
:103C50001CBFA4F18040B0F5C0501CD0A4F180403E
:103C6000B0F5E0501CBFA4F18040B0F5005012D078
:103C7000A4F18040B0F5A0301FBFA4F18040B0F5A2
:103C8000A230A4F18040B0F5A43004D040F64D211C
:103C900010A001F0D9FB012D18BF022D10D0042D6A
:103CA00018BF082D0CD0102D18BF202D08D0402D86
:103CB00018BF802D04D040F64E2106A001F0C4FBB1
:103CC000208AA189284201EA05011CBF002901269A
:103CD000304670BD73746D3332663130335C6C695D
:103CE000627261726965735C73746D333266313010
:103CF000785F74696D2E63002DE9F05F04460888D3
:103D00000D46002818BF042808D0082818BF0C2822
:103D100004D040F24E21DDA001F096FBA8880128D6
:103D20001CBF0228032804D040F24F21D7A001F085
:103D30008BFBE888002818BF042808D0082818BF83
:103D40000C2804D04FF41471D0A001F07DFB288919
:103D50000F2804D940F25121CCA001F075FBDFF807
:103D600050B3D44ED44FDFF85483DFF854935C45FE
:103D700018BFB44208D0B4F1804F18BFBC4203D082
:103D8000444518BF4C450AD16888002818BF02284E
:103D900010D040F25621BDA001F056FB0AE0688821
:103DA00000281CBF02280A2804D040F25A21B7A0DC
:103DB00001F04AFB2888C349C34AC44B4FF6FF7A37
:103DC000002872D0042800F0D8800828B84800F0F5
:103DD000F780844218BFB4F1804F0CD0BC4218BFAA
:103DE000444508D04C4518BFB44204D04FF41F716D
:103DF000A6A001F029FB6888AB882A89218C21F4D0
:103E000080512184B4F81CC0218C2CF4734C0AEA34
:103E1000032343EA0C030AEA02321343A44A0AEAE0
:103E2000003B944218BFB4420BD0B4F1804F18BF8E
:103E3000BC4206D044451EBF4C4521F40241084314
:103E400003D121F4005040EA0B0040F48050A383DA
:103E50002084ED88944218BFB4F1804F0CD0BC424E
:103E600018BF444508D04C4518BFB44204D040F6B2
:103E70007611974801F0E8FA002D18BF042D08D0FC
:103E8000082D18BF0C2D04D040F67711904801F092
:103E9000DBFAA08B20F44060A083A08B0AEA052106
:103EA0000843A083BDE8F09FFFE75C4518BFB4F16D
:103EB000804F2FD0BC4218BF44452BD04C4518BF73
:103EC000B44227D08C421CBFA4F18040B0F5A8308A
:103ED00020D0A4F18040B0F5AA3018BF944219D088
:103EE000A4F18040B0F5E0501CBFA4F18040B0F5D3
:103EF00000500FD09C421FBFA4F18040B0F5A2300B
:103F0000A4F18040B0F5A43004D040F25E215FA05F
:103F100001F09AFA6888AB882A89218C21F0010186
:103F20002184B4F818C0218C0AEA02121A432CF03A
:103F3000F30C42EA0C025C4518BFB44208D0B4F15D
:103F4000804F18BFBC4203D0444518BF4C4506D132
:103F500021F0020141EA000040F0010005E021F0FB
:103F60000A0141EA000040F0010022832084E98830
:103F70002046BDE8F05F00F091BA5C4518BFB4F18F
:103F8000804F11D0BC4218BF44450DD04C4518BFDE
:103F9000B44209D08C421CBF94429C4204D04FF4DE
:103FA0001A713AA001F050FA2B89AA886988204634
:103FB000FFF780FAE9882046BDE8F05F00F0E6BA36
:103FC000844218BFB4F1804F0CD0BC4218BF4445A6
:103FD00008D04C4518BFB44204D040F272212BA047
:103FE00001F032FA6888AB882A89218C21F480712B
:103FF0002184B4F81CC0218C0AEA02122CF0F30CC4
:104000001A4342EA0C032A4A0AEA002B944218BFD8
:10401000B4420BD0B4F1804F18BFBC4206D0444527
:104020001EBF4C4521F42061084303D121F40070E8
:1040300040EA0B0040F48070A3832084ED88944212
:1040400018BFB4F1804F0CD0BC4218BF444508D013
:104050004C4518BFB44204D04FF416611C4801F01F
:10406000F3F9002D18BF042D08D0082D18BF0C2D12
:1040700004D040F66111164801F0E6F9A08B20F05B
:104080000C00A083A08B28430BE7000073746D33F2
:1040900032663130335C6C69627261726965735C7F
:1040A00073746D3332663130785F74696D2E6300DE
:1040B000002C014000340140000400400008004092
:1040C000000C0040004C014000180040004001403E
:1040D000A446000870B50446A0F1804016460D467F
:1040E000B0F5963018BFB4F1804F4ED0A4F18040A7
:1040F000B0F580601CBFA4F18040B0F5006044D0F2
:10410000A4F18040B0F540601CBFA4F18040B0F540
:1041100080503AD0A4F18040B0F5A0501CBFA4F16B
:104120008040B0F59A3030D0A4F18040B0F5A63090
:104130001CBFA4F18040B0F5A83026D0A4F1804087
:10414000B0F5AA301CBFA4F18040B0F5C0501CD01F
:10415000A4F18040B0F5E0501CBFA4F18040B0F560
:10416000005012D0A4F18040B0F5A0301FBFA4F1E0
:104170008040B0F5A230A4F18040B0F5A43004D066
:1041800040F26B310DA001F05FF915F47F4F00D1C3
:1041900025B94FF45B7109A001F056F9002E04BF58
:1041A000A089A84308D0012E04D040F26D3103A0AD
:1041B00001F04AF9A0892843A08170BD73746D3362
:1041C00032663130335C6C69627261726965735C4E
:1041D00073746D3332663130785F74696D2E6300AD
:1041E00070B50446A0F180400D46B0F5963018BF7A
:1041F000B4F1804F44D0A4F18040B0F580601CBF82
:10420000A4F18040B0F500603AD0A4F18040B0F550
:1042100040601CBFA4F18040B0F59A3030D0A4F1CA
:104220008040B0F5A6301CBFA4F18040B0F5A830A6
:1042300026D0A4F18040B0F5AA301CBFA4F1804084
:10424000B0F5C0501CD0A4F18040B0F5E0501CBFC8
:10425000A4F18040B0F5005012D0A4F18040B0F538
:10426000A0301FBFA4F18040B0F5A230A4F180407F
:10427000B0F5A43004D040F2117109A001F0E4F8C7
:10428000002D18BF022D04D040F2127104A001F0DD
:10429000DBF8208C20F002002843208470BD000051
:1042A00073746D3332663130335C6C696272617283
:1042B0006965735C73746D3332663130785F74692D
:1042C0006D2E630070B50446A0F180400D46B0F538
:1042D000963018BFB4F1804F26D0A4F18040B0F5DD
:1042E00080601CBFA4F18040B0F500601CD0A4F138
:1042F0008040B0F540601CBFA4F18040B0F59A301A
:1043000012D0A4F18040B0F5A6301FBFA4F18040C8
:10431000B0F5C050A4F18040B0F5A03004D04FF407
:10432000E8610BA001F090F8002D18BF022D04D019
:1043300040F2417106A001F087F8208C4FF6FF7122
:1043400020F0200001EA05110843208470BD000020
:1043500073746D3332663130335C6C6962726172D2
:104360006965735C73746D3332663130785F74697C
:104370006D2E630070B50446A0F180400D46B0F587
:10438000963018BFB4F1804F18D0A4F18040B0F53A
:1043900080601CBFA4F18040B0F500600ED0A4F195
:1043A0008040B0F540601CBFA4F18040B0F59A3069
:1043B00004D040F26F710BA001F046F8002D18BF39
:1043C000022D04D04FF4EE6106A001F03DF8208CE0
:1043D0004FF6FF7120F4007001EA052108432084A4
:1043E00070BD000073746D3332663130335C6C69BC
:1043F000627261726965735C73746D3332663130F9
:10440000785F74696D2E630070B50446A0F180403A
:104410000D46B0F5963018BFB4F1804F18D0A4F116
:104420008040B0F580601CBFA4F18040B0F5006012
:104430000ED0A4F18040B0F540601CBFA4F18040D4
:10444000B0F59A3004D040F29F710BA000F0FCFF51
:10445000002D18BF022D04D04FF4F46106A000F027
:10446000F3FF208C4FF6FF7120F4005001EA053174
:104470000843208470BD000073746D3332663130A0
:10448000335C6C69627261726965735C73746D33FD
:1044900032663130785F74696D2E630070B5044602
:1044A000A0F180400D46B0F5963018BFB4F1804FB2
:1044B00044D0A4F18040B0F580601CBFA4F18040DE
:1044C000B0F500603AD0A4F18040B0F540601CBF68
:1044D000A4F18040B0F59A3030D0A4F18040B0F51E
:1044E000A6301CBFA4F18040B0F5A83026D0A4F1BE
:1044F0008040B0F5AA301CBFA4F18040B0F5C05098
:104500001CD0A4F18040B0F5E0501CBFA4F1804065
:10451000B0F5005012D0A4F18040B0F5A0301FBF1C
:10452000A4F18040B0F5A230A4F18040B0F5A430F1
:1045300004D040F634110CA000F086FF002D18BF07
:10454000042D08D0082D18BF0C2D04D040F63511CD
:1045500005A000F079FF208B20F00C002083208B39
:104560002843208370BD000073746D333266313090
:10457000335C6C69627261726965735C73746D330C
:1045800032663130785F74696D2E630070B5044611
:10459000A0F180400D46B0F5963018BFB4F1804FC1
:1045A00026D0A4F18040B0F580601CBFA4F180400B
:1045B000B0F500601CD0A4F18040B0F540601CBF95
:1045C000A4F18040B0F59A3012D0A4F18040B0F54B
:1045D000A6301FBFA4F18040B0F5C050A4F18040C8
:1045E000B0F5A03004D040F64A110E4800F02CFF80
:1045F000002D18BF042D08D0082D18BF0C2D04D095
:1046000040F64B11074800F01FFF208B20F440605C
:104610002083208B4FF6FF7101EA05210843208398
:1046200070BD0000A446000870B50446A0F18040AB
:104630000D46B0F5963018BFB4F1804F18D0A4F1F4
:104640008040B0F580601CBFA4F18040B0F50060F0
:104650000ED0A4F18040B0F540601CBFA4F18040B2
:10466000B0F59A3004D040F676110EA000F0ECFEC2
:10467000002D18BF042D08D0082D18BF0C2D04D014
:1046800040F6771107A000F0DFFEA08B20F4406019
:10469000A083A08B4FF6FF7101EA05210843A08398
:1046A00070BD000073746D3332663130335C6C69F9
:1046B000627261726965735C73746D333266313036
:1046C000785F74696D2E63002DE9F05F534EDFF85B
:1046D0005081DFF85091DFF850A1DFF850B1544F0E
:1046E0000D460446B04218BFB4F1804F3ED0444559
:1046F00018BF4C453AD0544518BF5C4536D0A4F19C
:104700008040B0F5A05018BFBC422FD0A4F180402B
:10471000B0F5A6301CBFA4F18040B0F5A83025D07C
:10472000A4F18040B0F5AA301CBFA4F18040B0F5E0
:10473000C0501BD0A4F18040B0F5E0501CBFA4F1E4
:104740008040B0F5005011D0A4F18040B0F5A03009
:104750001FBFA4F18040B0F5A230A4F18040B0F5B5
:10476000A43003D0E72133A000F06EFE6888002853
:1047700018BF102809D020281CBF4028602804D06A
:104780004FF0E8012BA000F05FFEE88800281CBF76
:10479000B0F5807FB0F5007F04D04FF0E90125A08F
:1047A00000F052FE2088B44218BFBC4208D0B4F1D9
:1047B000804F18BF444503D04C4518BF544504D121
:1047C000698820F0700041EA00005C451CBFA4F13C
:1047D0008041B1F5A05103D0E98820F4407008432E
:1047E0002080A888A08528882085B44218BFBC42B4
:1047F0000DD0A4F18040B0F5A0301FBFA4F18040DF
:10480000B0F5A230A4F18040B0F5A43001D1287AEF
:1048100020860120A082BDE8F09F0000002C01400E
:104820000004004000080040000C00400010004060
:104830000034014073746D3332663130335C6C691F
:10484000627261726965735C73746D3332663130A4
:10485000785F74696D2E630070B51D4D40F2244180
:10486000284600F001FB08B3284600F0F5FC194E7D
:1048700000213046FDF7C8FB3046FDF7EFFC164C33
:10488000C0F5C87060804FF4C8713046FDF75EFF18
:1048900001213046FDF7B8FB618800200F4AC1F3C3
:1048A0000E015054608840F40040608008212C467E
:1048B000284600F075FA012818BF70BD082120466F
:1048C00000F088F92046BDE8704000F0C5BC00004B
:1048D000003801405800024018000020F00200207B
:1048E00070B52E4986B004460A78012AFCD0012111
:1048F0000420FEF71DFC01210420FEF719FC012114
:104900008803FEF715FC4FF40070ADF81000032586
:104910008DF812501820224E8DF8130004A930464D
:10492000FEF786F83015ADF810008DF8125004200F
:104930008DF8130004A93046FEF77AF8009400249D
:10494000ADF808400C20174DADF80440ADF80A0052
:10495000ADF80640ADF80C406946284600F09AFBD9
:1049600025208DF814008DF815408DF81640012093
:104970008DF8170005A8FEF7E9FA012240F224415C
:10498000284600F0FBFA0121284600F075F9FDF7F2
:1049900035FF05A000F010F806B070BD180000202B
:1049A0000008014000380140555341525431204F16
:1049B0004B2E2E2E0D0A00000FB410B50C4C207893
:1049C0000128FCD003AB40F259210A48029AFBF7B8
:1049D000EBFC0848FBF738FE012180B22170064944
:1049E000886401210548FDF70FFB10BC5DF814FB3E
:1049F00018000020980000200000024044000240FF
:104A000070B51C4D40F22441284600F02DFA00B349
:104A1000284600F021FC184E00213046FDF7F4FA3C
:104A20003046FDF71BFC154CC0F5C870608014497A
:104A30004FF4C870086701213046FDF7E5FA618838
:104A40000020104AC1F30E015054608840F4004029
:104A5000608008212C46284600F0A2F9012818BFE2
:104A600070BD0821204600F0B5F82046BDE8704032
:104A700000F0F2BB004400406C0002401C0000202B
:104A800000000240D806002070B51C4D40F22441C1
:104A9000284600F0E9F900B3284600F0DDFB184E87
:104AA00000213046FDF7B0FA3046FDF7D7FB154C34
:104AB000C0F5C870608014494FF4C8704863012184
:104AC0003046FDF7A1FA61880020104AC1F30E01BB
:104AD0005054608840F40040608008212C462846ED
:104AE00000F05EF9012818BF70BD0821204600F0D3
:104AF00071F82046BDE8704000F0AEBB00480040B1
:104B0000300002402000002000000240C00A0020C7
:104B100070B52D4986B004460A78012AFCD00121DF
:104B20000820FEF705FB01210820FEF701FB01210B
:104B30008804FEF7C9FA4FF48060ADF81000032531
:104B40008DF812501820214E8DF8130004A930461C
:104B5000FDF76EFFF014ADF810008DF81250042030
:104B60008DF8130004A93046FDF762FF009400247D
:104B7000ADF808400C20164DADF80440ADF80A0021
:104B8000ADF80640ADF80C406946284600F082FAC0
:104B900027208DF814008DF815408DF8164001205F
:104BA0008DF8170005A8FEF7D1F9012240F2244143
:104BB000284600F0E3F90121284600F05DF8FDF7F2
:104BC000A9FE06B070BD000020000020000C0140CE
:104BD000004800402DE9F0411A4EDFF86C801B4F71
:104BE0000D460446B04218BF44450FD0BC421FBF1B
:104BF000A4F18040B0F59840A4F18040B0F5A04009
:104C000004D040F29E3112A000F01EFC35F4587022
:104C100000D125B940F29F310DA000F015FC15F42C
:104C2000007F18BFB44208D0444518BFBC4204D02E
:104C300040F2A33106A000F007FCE8432080BDE865
:104C4000F08100000038014000440040004800406E
:104C500073746D3332663130335C6C6962726172C9
:104C60006965735C73746D3332663130785F757368
:104C70006172742E6300000070B50446A0F180409C
:104C80000D46B0F59C301CBFA4F18040B0F58840C3
:104C900012D0A4F18040B0F590401FBFA4F1804035
:104CA000B0F59840A4F18040B0F5A04004D04FF496
:104CB000B1710AA000F0C8FB002D04BFA08920F448
:104CC000005009D0012D04D040F2631103A000F080
:104CD000BBFBA08940F40050A08170BD73746D339C
:104CE00032663130335C6C69627261726965735C23
:104CF00073746D3332663130785F75736172742E00
:104D00006300000070B50446A0F1804016460D46D1
:104D1000B0F59C301CBFA4F18040B0F5884012D0A3
:104D2000A4F18040B0F590401FBFA4F18040B0F5E1
:104D30009840A4F18040B0F5A04004D040F2C311E7
:104D40000DA000F081FB35F0C00000D125B94FF473
:104D5000E27109A000F078FB002E04BFA08AA843EE
:104D600008D0012E04D040F2C51103A000F06CFB66
:104D7000A08A2843A08270BD73746D3332663130CF
:104D8000335C6C69627261726965735C73746D33F4
:104D900032663130785F75736172742E6300000083
:104DA0002DE9F047DFF88C800026234FDFF88C9048
:104DB0000C460546404518BFBD420FD04D451FBFAC
:104DC000A5F18040B0F59840A5F18040B0F5A04035
:104DD00004D040F26E311AA000F036FB012C18BF4F
:104DE000802C20D0402C18BF202C1CD0102C18BF99
:104DF000B4F5807F17D0B4F5007F0AD0082C1CBF13
:104E0000042C022C0FD040F26F310DA000F01CFBDF
:104E100009E045451CBFBD424D4504D040F2733109
:104E200007A000F011FB2888204218BF0126304659
:104E3000BDE8F087003801400044004000480040D1
:104E400073746D3332663130335C6C6962726172D7
:104E50006965735C73746D3332663130785F757376
:104E60006172742E630000002DE9F047364F002672
:104E7000DFF8D880DFF8D8900C460546B84218BF56
:104E800045450FD04D451FBFA5F18040B0F5984076
:104E9000A5F18040B0F5A04004D040F2C1312DA072
:104EA00000F0D2FA282C1CBFA4F5E060B0F1270076
:104EB0002DD0A4F5C06026381CBFA4F5A060B0F1C9
:104EC000250024D0A4F5806024381CBFA4F5006020
:104ED000B0F146001BD0A4F510606A380DD0B4F5CF
:104EE000587F1CBFB4F5187FB4F5B07F0FD040F2E7
:104EF000C23118A000F0A8FA09E0BD421CBF454528
:104F00004D4504D040F2C63112A000F09DFA04F0E5
:104F10001F000122C4F3421102FA00F0012904BF6C
:104F2000A989084004D002290CBF298AA98A08400F
:104F3000210A02FA01F12A88114000281CBF002929
:104F400001263046BDE8F0870038014000440040AB
:104F50000048004073746D3332663130335C6C69E5
:104F6000627261726965735C73746D33326631307D
:104F7000785F75736172742E630000002DE9F0474D
:104F8000374FDFF8E080DFF8E09016460D46044624
:104F9000B84218BF44450FD04C451FBFA4F1804014
:104FA000B0F59840A4F18040B0F5A04004D040F2A4
:104FB00089112EA000F048FA40F66A1A282D1CBF6D
:104FC000A5F5E060B0F127001AD0A5F5C06026383D
:104FD0001CBFA5F5A060B0F1250011D0A5F580603B
:104FE00024381CBFA5F50060B0F1460008D0554537
:104FF00018BF602D04D04FF4C5711CA000F024FA36
:10500000002E18BF012E04D040F28B1117A000F023
:105010001BFA554509D1BC421CBF44454C4504D040
:1050200040F28F1111A000F00FFA05F01F010122CC
:10503000C5F3421002FA01F1012808BF04F10C0087
:1050400005D002280CBF04F1100004F11400002E5A
:10505000026814BF114322EA01010160BDE8F08734
:1050600000380140004400400048004073746D3334
:1050700032663130335C6C69627261726965735C8F
:1050800073746D3332663130785F75736172742E6C
:10509000630000002DE9F041604E614FDFF884812C
:1050A00086B00D460446B04218BFBC420ED04445FF
:1050B0001FBFA4F18040B0F59840A4F18040B0F546
:1050C000A04003D0B82158A000F0BEF9286860497C
:1050D000401E884203D3B92153A000F0B5F9A88837
:1050E000002818BFB0F5805F04D04FF0BA014EA081
:1050F00000F0AAF9E888002818BFB0F5805F0AD050
:10510000B0F5005F18BFB0F5405F04D04FF0BB01B1
:1051100045A000F099F9288900281CBFB0F5806FE0
:10512000B0F5C06F04D04FF0BC013FA000F08CF987
:10513000688930F00C0100D118B9BD213AA000F007
:1051400083F9A889002818D0B0F5807F1CBFB0F57E
:10515000007FB0F5407F06D04FF0BE0132A000F0D6
:1051600073F9A88948B1B4421CBFBC42444504D07D
:105170004FF0C2012CA000F067F9208A4CF6FF71B5
:105180000840E98808432082A0894EF6F3110840C0
:10519000A9882A8911436A8910430843A081A08AFB
:1051A0004FF6FF410840A9890843A0826846FDF7F1
:1051B000F3FFB4420CBF03980298A18911F4004F89
:1051C00000EBC00101EB0010296814BF4900890001
:1051D000B0FBF1F01F4A6FF0180CA2FB0031490937
:1051E00009010B0903FB0CF300EB8300A38913F403
:1051F000004F4FF0320314BF03EBC00003EB00106D
:10520000A2FB00204FEA501014BF00F0070000F08E
:105210000F000843208106B0BDE8F081003801404E
:10522000004400400048004073746D3332663130F2
:10523000335C6C69627261726965735C73746D333F
:1052400032663130785F75736172742E63000000CE
:1052500020AA44001F85EB5110B50446A0F1804000
:10526000B0F59C301CBFA4F18040B0F5884012D04E
:10527000A4F18040B0F590401FBFA4F18040B0F58C
:105280009840A4F18040B0F5A04004D04FF41971CB
:1052900003A000F0D9F8A088C0F3080010BD0000FA
:1052A00073746D3332663130335C6C696272617273
:1052B0006965735C73746D3332663130785F757312
:1052C0006172742E6300000070B50446A0F1804046
:1052D0000D46B0F59C301CBFA4F18040B0F588406D
:1052E00012D0A4F18040B0F590401FBFA4F18040DF
:1052F000B0F59840A4F18040B0F5A04004D040F251
:10530000532107A000F0A0F8B5F5007F04D34FF4B7
:10531000157103A000F098F8C5F30800A08070BDD7
:1053200073746D3332663130335C6C6962726172F2
:105330006965735C73746D3332663130785F757391
:105340006172742E6300000038B501210420FDF75E
:10535000EFFEF020ADF8000010208DF803000320D0
:10536000054C8DF8020069462046FDF761FBF021EF
:105370002046FDF773FD38BD0008014010B5074C0D
:1053800010212046FDF76AFD142000F0C7F82046E2
:10539000BDE810401021FDF71BBD000000080140D2
:1053A00010B5074C20212046FDF758FD142000F0D1
:1053B000B5F82046BDE810402021FDF709BD0000EA
:1053C0000008014010B5074C40212046FDF746FD7E
:1053D000142000F0A3F82046BDE810404021FDF75E
:1053E000F7BC00000008014010B5074C80212046A2
:1053F000FDF734FD142000F091F82046BDE8104080
:105400008021FDF7E5BC000000080140FEE74900EF
:1054100050EAC12018BF04204A0D18BF40F0010017
:1054200040F2FF72B2EB515F08BF40F0020001286A
:1054300008BF0520704730380A2801D20120704784
:1054400000207047704700000A46014601A0FAF7A5
:10545000C5BF0000B6CFD1D43A5BCEC4BCFE3A255E
:10546000735D205BD0D03A25645D0D0A000000001A
:1054700010B54FF44070FDF7C5FD1549F02081F8D7
:10548000140D01210846FDF753FE01211148FDF7D7
:1054900087FB6FF00400FDF725FF0F480F490068F8
:1054A000B0FBF1F0C1B20E4801704FF0E02002698C
:1054B00042F00202026101EB4102C2EBC11142174C
:1054C00002EBC1014161016941F00101016110BDBF
:1054D0000FE000E0000230002400002000127A00FB
:1054E0000800002030B44FF0E0234FF47A714843B5
:1054F0005C690021084A127800FB02FC98699A69ED
:105500008242FCD026BFA51A2844801A01441046C6
:105510006145F4D330BC70470800002030B44FF030
:10552000E02400216369094A127800FB02FCA269A9
:10553000A0699042FCD026BF1D1A2A44121A1144B9
:1055400002466145F4D330BC7047000008000020DB
:1055500070B50A4C054680212046FFF721FC002843
:10556000F9D0E9B22046FFF7AFFE40212046FFF711
:1055700017FC0028F9D0284670BD00000038014013
:1055800082B00024FFF774FF4FF4E130FFF7A8F971
:105590004FF4E130FFF7BCFA47214FF6FF70FDF7FB
:1055A000C7FFFFF7D1FE154FDFF85480154E164D9B
:1055B00034B1012C08D0022C0AD0032C0CD00EE000
:1055C000FFF7DCFE01240AE0FFF7EAFE022406E012
:1055D000FFF7F8FE032402E0FFF706FF0024386817
:1055E0000090D8F80030326808A02968FAF7F6FE73
:1055F0004FF47A70FFF776FFDAE7000084000020AE
:10560000800000207C00002078000020313A2564D2
:105610007C323A25647C333A25647C343A25640D27
:105620000A00000010B500290AD00878002807D029
:1056300005487844FBF728F8002801D0002010BD69
:105640000248784410BD0000720100006A010000A9
:1056500010B500290AD00878002807D005487844FA
:10566000FBF712F8002801D0002010BD0248784452
:1056700010BD0000620100005A010000FBF776BB7C
:10568000FBF7AABC040000080000000000000002B4
:1056900000010000100000000000000000000000F9
:1056A0003031323334353637383941424344454658
:1056B0004030580030313233343536373839616252
:1056C00063646566403078003031323334353637C4
:1056D0003839616263646566787000303132333422
:1056E000353637383941424344454658500000006A
:1056F00002400000000000A0000000000540000083
:10570000000000C8000000000C4000000000409CA9
:1057100000000000194000000020BCBE0000000096
:1057200034400000BFC91B8E00000004B5400000DB
:10573000504BCFD06607E2CF010000006C41000063
:105740003E8251AADFEEA73401000000D9420000DA
:10575000DCB5A0E23A301F97FFFFFFFFB445000021
:10576000FD25A0C8E9A3C14FFFFFFFFFFF3F0000D9
:105770000000008000000000FF3F000000000080EB
:1057800000000000D0580008000000209800000031
:105790006C010008685900089800002058120000A9
:1057A000880100081C00000043000000F8FFFFFF14
:1057B0000C0000000E0000000F0000002E00000092
:1057C0001001000043000000F8FFFFFF00404040D0
:1057D00040404040404041414141414040404040C4
:1057E0004040404040404040404040404005020270
:1057F000020202020202020202020202022020202F
:10580000202020202020200202020202020290908A
:105810009090909010101010101010101010101088
:1058200010101010101010100202020202028888DC
:1058300088888888080808080808080808080808E8
:1058400008080808080808080202020240000000D0
:105850000000000000000000000000000000000048
:105860000000000000000000000000000000000038
:105870000000000000000000000000000000000028
:105880000000000000000000000000000000000018
:105890000000000000000000000000000000000008
:1058A00000000000000000000000000000000000F8
:1058B00000000000000000000000000000000000E8
:1058C00000000000000000000000000000000000D8
:1058D00000000000000000000000000000000000C8
:1058E00000000000000000000000000000000000B8
:1058F0000000000000A24A040000000000000000B8
:10590000010203040607080902040608000000005B
:10591000010203040102030406070809000102034F
:10592000040506070809000000010000000000004F
:105930000000000000000000000000000000000067
:105940000000000000000000000000000000000057
:105950000000000000000000000000000000000047
:0859600000000000000000003F
:0400000508000131BD
:00000001FF
